{
  "_format": "hh-sol-artifact-1",
  "contractName": "Dao",
  "sourceName": "contracts/Dao.sol",
  "abi": [
    {
      "inputs": [],
      "stateMutability": "nonpayable",
      "type": "constructor"
    },
    {
      "anonymous": false,
      "inputs": [
        {
          "indexed": true,
          "internalType": "uint256",
          "name": "proposal",
          "type": "uint256"
        },
        {
          "indexed": false,
          "internalType": "uint256",
          "name": "votesUp",
          "type": "uint256"
        },
        {
          "indexed": false,
          "internalType": "uint256",
          "name": "votesDown",
          "type": "uint256"
        },
        {
          "indexed": true,
          "internalType": "address",
          "name": "voter",
          "type": "address"
        },
        {
          "indexed": true,
          "internalType": "bool",
          "name": "votedFor",
          "type": "bool"
        }
      ],
      "name": "newVote",
      "type": "event"
    },
    {
      "anonymous": false,
      "inputs": [
        {
          "indexed": true,
          "internalType": "uint256",
          "name": "id",
          "type": "uint256"
        },
        {
          "indexed": false,
          "internalType": "string",
          "name": "description",
          "type": "string"
        },
        {
          "indexed": false,
          "internalType": "uint256",
          "name": "maxVotes",
          "type": "uint256"
        },
        {
          "indexed": false,
          "internalType": "address",
          "name": "proposer",
          "type": "address"
        }
      ],
      "name": "proposalCreated",
      "type": "event"
    },
    {
      "anonymous": false,
      "inputs": [
        {
          "indexed": true,
          "internalType": "uint256",
          "name": "id",
          "type": "uint256"
        },
        {
          "indexed": true,
          "internalType": "bool",
          "name": "passed",
          "type": "bool"
        }
      ],
      "name": "proposalEnded",
      "type": "event"
    },
    {
      "inputs": [
        {
          "internalType": "uint256",
          "name": "",
          "type": "uint256"
        }
      ],
      "name": "Proposals",
      "outputs": [
        {
          "internalType": "uint256",
          "name": "id",
          "type": "uint256"
        },
        {
          "internalType": "bool",
          "name": "exists",
          "type": "bool"
        },
        {
          "internalType": "string",
          "name": "description",
          "type": "string"
        },
        {
          "internalType": "uint256",
          "name": "deadline",
          "type": "uint256"
        },
        {
          "internalType": "uint256",
          "name": "votesUp",
          "type": "uint256"
        },
        {
          "internalType": "uint256",
          "name": "votesDown",
          "type": "uint256"
        },
        {
          "internalType": "uint256",
          "name": "maxVotes",
          "type": "uint256"
        },
        {
          "internalType": "bool",
          "name": "countConducted",
          "type": "bool"
        },
        {
          "internalType": "bool",
          "name": "passed",
          "type": "bool"
        }
      ],
      "stateMutability": "view",
      "type": "function"
    },
    {
      "inputs": [
        {
          "internalType": "uint256[]",
          "name": "tokenList",
          "type": "uint256[]"
        }
      ],
      "name": "addValidTokens",
      "outputs": [],
      "stateMutability": "nonpayable",
      "type": "function"
    },
    {
      "inputs": [
        {
          "internalType": "uint256",
          "name": "_id",
          "type": "uint256"
        }
      ],
      "name": "countVotes",
      "outputs": [],
      "stateMutability": "nonpayable",
      "type": "function"
    },
    {
      "inputs": [
        {
          "internalType": "string",
          "name": "_description",
          "type": "string"
        },
        {
          "internalType": "address[]",
          "name": "_canVote",
          "type": "address[]"
        }
      ],
      "name": "createProposal",
      "outputs": [],
      "stateMutability": "nonpayable",
      "type": "function"
    },
    {
      "inputs": [],
      "name": "owner",
      "outputs": [
        {
          "internalType": "address",
          "name": "",
          "type": "address"
        }
      ],
      "stateMutability": "view",
      "type": "function"
    },
    {
      "inputs": [
        {
          "internalType": "uint256",
          "name": "id",
          "type": "uint256"
        },
        {
          "internalType": "uint256",
          "name": "time",
          "type": "uint256"
        }
      ],
      "name": "updateDeadline",
      "outputs": [],
      "stateMutability": "nonpayable",
      "type": "function"
    },
    {
      "inputs": [
        {
          "internalType": "uint256",
          "name": "",
          "type": "uint256"
        }
      ],
      "name": "validTokens",
      "outputs": [
        {
          "internalType": "uint256",
          "name": "",
          "type": "uint256"
        }
      ],
      "stateMutability": "view",
      "type": "function"
    },
    {
      "inputs": [
        {
          "internalType": "uint256",
          "name": "_id",
          "type": "uint256"
        },
        {
          "internalType": "bool",
          "name": "_vote",
          "type": "bool"
        }
      ],
      "name": "voteOnProposal",
      "outputs": [],
      "stateMutability": "nonpayable",
      "type": "function"
    }
  ],
  "bytecode": "0x60806040523480156200001157600080fd5b50336000806101000a81548173ffffffffffffffffffffffffffffffffffffffff021916908373ffffffffffffffffffffffffffffffffffffffff160217905550600180819055506202a30060028190555073f4910c763ed4e47a585e2d34baa9a4b611ae448c600460006101000a81548173ffffffffffffffffffffffffffffffffffffffff021916908373ffffffffffffffffffffffffffffffffffffffff16021790555060405180602001604052807f81ed402e29ed683a45678165d6ad8d72f65629eb0000000000000100000000018152506003906001620000f992919062000100565b5062000171565b8280548282559060005260206000209081019282156200013f579160200282015b828111156200013e57825182559160200191906001019062000121565b5b5090506200014e919062000152565b5090565b5b808211156200016d57600081600090555060010162000153565b5090565b611b0380620001816000396000f3fe608060405234801561001057600080fd5b50600436106100885760003560e01c80638da5cb5b1161005b5780638da5cb5b146100fd578063be8bb7ba1461011b578063d1dbe7d814610137578063e9d3d16a1461016f57610088565b80631614665c1461008d5780631840f0ca146100a9578063260b3d53146100c5578063899b184f146100e1575b600080fd5b6100a760048036038101906100a29190611114565b61019f565b005b6100c360048036038101906100be91906110ba565b610499565b005b6100df60048036038101906100da9190610ff9565b6106b7565b005b6100fb60048036038101906100f69190611154565b6107ab565b005b61010561086a565b6040516101129190611312565b60405180910390f35b61013560048036038101906101309190611042565b61088e565b005b610151600480360381019061014c91906110ba565b6109c5565b604051610166999897969594939291906114af565b60405180910390f35b610189600480360381019061018491906110ba565b610ac2565b6040516101969190611494565b60405180910390f35b6005600083815260200190815260200160002060010160009054906101000a900460ff16610202576040517f08c379a00000000000000000000000000000000000000000000000000000000081526004016101f9906113d4565b60405180910390fd5b61020c8233610ae6565b61024b576040517f08c379a000000000000000000000000000000000000000000000000000000000815260040161024290611394565b60405180910390fd5b6005600083815260200190815260200160002060080160003373ffffffffffffffffffffffffffffffffffffffff1673ffffffffffffffffffffffffffffffffffffffff16815260200190815260200160002060009054906101000a900460ff16156102ec576040517f08c379a00000000000000000000000000000000000000000000000000000000081526004016102e3906113f4565b60405180910390fd5b4260056000848152602001908152602001600020600301541015610345576040517f08c379a000000000000000000000000000000000000000000000000000000000815260040161033c90611454565b60405180910390fd5b801561037c5760056000838152602001908152602001600020600401600081548092919061037290611779565b91905055506103a9565b6005600083815260200190815260200160002060050160008154809291906103a390611779565b91905055505b60016005600084815260200190815260200160002060080160003373ffffffffffffffffffffffffffffffffffffffff1673ffffffffffffffffffffffffffffffffffffffff16815260200190815260200160002060006101000a81548160ff0219169083151502179055508015153373ffffffffffffffffffffffffffffffffffffffff16837f14f3d6dce13f9f09a4b0f8d30c3a990b0affdc04bd73860f7611f21001d87a596005600087815260200190815260200160002060040154600560008881526020019081526020016000206005015460405161048d929190611543565b60405180910390a45050565b60008054906101000a900473ffffffffffffffffffffffffffffffffffffffff1673ffffffffffffffffffffffffffffffffffffffff163373ffffffffffffffffffffffffffffffffffffffff1614610527576040517f08c379a000000000000000000000000000000000000000000000000000000000815260040161051e90611434565b60405180910390fd5b6005600082815260200190815260200160002060010160009054906101000a900460ff1661058a576040517f08c379a0000000000000000000000000000000000000000000000000000000008152600401610581906113d4565b60405180910390fd5b600560008281526020019081526020016000206003015442116105ac57600080fd5b6005600082815260200190815260200160002060090160009054906101000a900460ff1615610610576040517f08c379a0000000000000000000000000000000000000000000000000000000008152600401610607906113b4565b60405180910390fd5b60006005600083815260200190815260200160002090508060050154816004015411156106555760018160090160016101000a81548160ff0219169083151502179055505b60018160090160006101000a81548160ff0219169083151502179055508060090160019054906101000a900460ff161515827f822e9cd5ad7320a854b162b015bf676b69b92a8ef1b93abb44165afb815be01f60405160405180910390a35050565b60008054906101000a900473ffffffffffffffffffffffffffffffffffffffff1673ffffffffffffffffffffffffffffffffffffffff163373ffffffffffffffffffffffffffffffffffffffff1614610745576040517f08c379a000000000000000000000000000000000000000000000000000000000815260040161073c90611434565b60405180910390fd5b60005b81518110156107a757600382828151811061076657610765611820565b5b60200260200101519080600181540180825580915050600190039060005260206000200160009091909190915055808061079f90611779565b915050610748565b5050565b60008054906101000a900473ffffffffffffffffffffffffffffffffffffffff1673ffffffffffffffffffffffffffffffffffffffff163373ffffffffffffffffffffffffffffffffffffffff1614610839576040517f08c379a000000000000000000000000000000000000000000000000000000000815260040161083090611474565b60405180910390fd5b8060056000848152602001908152602001600020600301600082825461085f9190611636565b925050819055505050565b60008054906101000a900473ffffffffffffffffffffffffffffffffffffffff1681565b61089733610bbe565b6108d6576040517f08c379a00000000000000000000000000000000000000000000000000000000081526004016108cd90611414565b60405180910390fd5b60006005600060015481526020019081526020016000209050600154816000018190555060018160010160006101000a81548160ff0219169083151502179055508281600201908051906020019061092f929190610ccc565b506002544261093e9190611636565b81600301819055508181600601908051906020019061095e929190610d52565b50815181600701819055506001547f3ec21697eb8018b62928e5f290d2bccf3af51e8b6cdf71fceab712977647bba9848451336040516109a093929190611356565b60405180910390a2600160008154809291906109bb90611779565b9190505550505050565b60056020528060005260406000206000915090508060000154908060010160009054906101000a900460ff1690806002018054610a0190611716565b80601f0160208091040260200160405190810160405280929190818152602001828054610a2d90611716565b8015610a7a5780601f10610a4f57610100808354040283529160200191610a7a565b820191906000526020600020905b815481529060010190602001808311610a5d57829003601f168201915b5050505050908060030154908060040154908060050154908060070154908060090160009054906101000a900460ff16908060090160019054906101000a900460ff16905089565b60038181548110610ad257600080fd5b906000526020600020016000915090505481565b600080600090505b6005600085815260200190815260200160002060060180549050811015610bb257600560008581526020019081526020016000206006018181548110610b3757610b36611820565b5b9060005260206000200160009054906101000a900473ffffffffffffffffffffffffffffffffffffffff1673ffffffffffffffffffffffffffffffffffffffff168373ffffffffffffffffffffffffffffffffffffffff161415610b9f576001915050610bb8565b8080610baa90611779565b915050610aee565b50600090505b92915050565b600080600090505b600380549050811015610cc1576001600460009054906101000a900473ffffffffffffffffffffffffffffffffffffffff1673ffffffffffffffffffffffffffffffffffffffff1662fdd58e8560038581548110610c2757610c26611820565b5b90600052602060002001546040518363ffffffff1660e01b8152600401610c4f92919061132d565b60206040518083038186803b158015610c6757600080fd5b505afa158015610c7b573d6000803e3d6000fd5b505050506040513d601f19601f82011682018060405250810190610c9f91906110e7565b10610cae576001915050610cc7565b8080610cb990611779565b915050610bc6565b50600090505b919050565b828054610cd890611716565b90600052602060002090601f016020900481019282610cfa5760008555610d41565b82601f10610d1357805160ff1916838001178555610d41565b82800160010185558215610d41579182015b82811115610d40578251825591602001919060010190610d25565b5b509050610d4e9190610ddc565b5090565b828054828255906000526020600020908101928215610dcb579160200282015b82811115610dca5782518260006101000a81548173ffffffffffffffffffffffffffffffffffffffff021916908373ffffffffffffffffffffffffffffffffffffffff16021790555091602001919060010190610d72565b5b509050610dd89190610ddc565b5090565b5b80821115610df5576000816000905550600101610ddd565b5090565b6000610e0c610e0784611591565b61156c565b90508083825260208201905082856020860282011115610e2f57610e2e611883565b5b60005b85811015610e5f5781610e458882610f1b565b845260208401935060208301925050600181019050610e32565b5050509392505050565b6000610e7c610e77846115bd565b61156c565b90508083825260208201905082856020860282011115610e9f57610e9e611883565b5b60005b85811015610ecf5781610eb58882610fcf565b845260208401935060208301925050600181019050610ea2565b5050509392505050565b6000610eec610ee7846115e9565b61156c565b905082815260208101848484011115610f0857610f07611888565b5b610f138482856116d4565b509392505050565b600081359050610f2a81611a88565b92915050565b600082601f830112610f4557610f4461187e565b5b8135610f55848260208601610df9565b91505092915050565b600082601f830112610f7357610f7261187e565b5b8135610f83848260208601610e69565b91505092915050565b600081359050610f9b81611a9f565b92915050565b600082601f830112610fb657610fb561187e565b5b8135610fc6848260208601610ed9565b91505092915050565b600081359050610fde81611ab6565b92915050565b600081519050610ff381611ab6565b92915050565b60006020828403121561100f5761100e611892565b5b600082013567ffffffffffffffff81111561102d5761102c61188d565b5b61103984828501610f5e565b91505092915050565b6000806040838503121561105957611058611892565b5b600083013567ffffffffffffffff8111156110775761107661188d565b5b61108385828601610fa1565b925050602083013567ffffffffffffffff8111156110a4576110a361188d565b5b6110b085828601610f30565b9150509250929050565b6000602082840312156110d0576110cf611892565b5b60006110de84828501610fcf565b91505092915050565b6000602082840312156110fd576110fc611892565b5b600061110b84828501610fe4565b91505092915050565b6000806040838503121561112b5761112a611892565b5b600061113985828601610fcf565b925050602061114a85828601610f8c565b9150509250929050565b6000806040838503121561116b5761116a611892565b5b600061117985828601610fcf565b925050602061118a85828601610fcf565b9150509250929050565b61119d8161168c565b82525050565b6111ac8161169e565b82525050565b60006111bd8261161a565b6111c78185611625565b93506111d78185602086016116e3565b6111e081611897565b840191505092915050565b60006111f8601d83611625565b9150611203826118a8565b602082019050919050565b600061121b602983611625565b9150611226826118d1565b604082019050919050565b600061123e601d83611625565b915061124982611920565b602082019050919050565b6000611261601783611625565b915061126c82611949565b602082019050919050565b6000611284602483611625565b915061128f82611972565b604082019050919050565b60006112a7601683611625565b91506112b2826119c1565b602082019050919050565b60006112ca602983611625565b91506112d5826119ea565b604082019050919050565b60006112ed603083611625565b91506112f882611a39565b604082019050919050565b61130c816116ca565b82525050565b60006020820190506113276000830184611194565b92915050565b60006040820190506113426000830185611194565b61134f6020830184611303565b9392505050565b6000606082019050818103600083015261137081866111b2565b905061137f6020830185611303565b61138c6040830184611194565b949350505050565b600060208201905081810360008301526113ad816111eb565b9050919050565b600060208201905081810360008301526113cd8161120e565b9050919050565b600060208201905081810360008301526113ed81611231565b9050919050565b6000602082019050818103600083015261140d81611254565b9050919050565b6000602082019050818103600083015261142d81611277565b9050919050565b6000602082019050818103600083015261144d8161129a565b9050919050565b6000602082019050818103600083015261146d816112bd565b9050919050565b6000602082019050818103600083015261148d816112e0565b9050919050565b60006020820190506114a96000830184611303565b92915050565b6000610120820190506114c5600083018c611303565b6114d2602083018b6111a3565b81810360408301526114e4818a6111b2565b90506114f36060830189611303565b6115006080830188611303565b61150d60a0830187611303565b61151a60c0830186611303565b61152760e08301856111a3565b6115356101008301846111a3565b9a9950505050505050505050565b60006040820190506115586000830185611303565b6115656020830184611303565b9392505050565b6000611576611587565b90506115828282611748565b919050565b6000604051905090565b600067ffffffffffffffff8211156115ac576115ab61184f565b5b602082029050602081019050919050565b600067ffffffffffffffff8211156115d8576115d761184f565b5b602082029050602081019050919050565b600067ffffffffffffffff8211156116045761160361184f565b5b61160d82611897565b9050602081019050919050565b600081519050919050565b600082825260208201905092915050565b6000611641826116ca565b915061164c836116ca565b9250827fffffffffffffffffffffffffffffffffffffffffffffffffffffffffffffffff03821115611681576116806117c2565b5b828201905092915050565b6000611697826116aa565b9050919050565b60008115159050919050565b600073ffffffffffffffffffffffffffffffffffffffff82169050919050565b6000819050919050565b82818337600083830152505050565b60005b838110156117015780820151818401526020810190506116e6565b83811115611710576000848401525b50505050565b6000600282049050600182168061172e57607f821691505b60208210811415611742576117416117f1565b5b50919050565b61175182611897565b810181811067ffffffffffffffff821117156117705761176f61184f565b5b80604052505050565b6000611784826116ca565b91507fffffffffffffffffffffffffffffffffffffffffffffffffffffffffffffffff8214156117b7576117b66117c2565b5b600182019050919050565b7f4e487b7100000000000000000000000000000000000000000000000000000000600052601160045260246000fd5b7f4e487b7100000000000000000000000000000000000000000000000000000000600052602260045260246000fd5b7f4e487b7100000000000000000000000000000000000000000000000000000000600052603260045260246000fd5b7f4e487b7100000000000000000000000000000000000000000000000000000000600052604160045260246000fd5b600080fd5b600080fd5b600080fd5b600080fd5b600080fd5b6000601f19601f8301169050919050565b7f596f7520617265206e6f7420656c696769626c6520746f20766f746521000000600082015250565b7f50726f706f73616c20636f756e7420686173206265656e20616c72656164792060008201527f636f6e6475637465640000000000000000000000000000000000000000000000602082015250565b7f546869732070726f706f73616c20646f6573206e6f742065786973742e000000600082015250565b7f596f75206861766520616c726561647920766f74656421000000000000000000600082015250565b7f596f752061726520656c696769626c6520746f206372656174652070726f706f60008201527f73616c2100000000000000000000000000000000000000000000000000000000602082015250565b7f596f7520617265206e6f7420746865206f776e65722e00000000000000000000600082015250565b7f54686520646561646c696e6520666f7220746869732070726f706f73616c206960008201527f73207061737365642e0000000000000000000000000000000000000000000000602082015250565b7f4f6e6c7920746865206f776e6572206f6620636f6e74726163742063616e207560008201527f706461746520646561646c696e65732e00000000000000000000000000000000602082015250565b611a918161168c565b8114611a9c57600080fd5b50565b611aa88161169e565b8114611ab357600080fd5b50565b611abf816116ca565b8114611aca57600080fd5b5056fea26469706673582212201f804b434e7ed67c158cf855594bffc188fc25d1de6334cf1818ce5c9942e17364736f6c63430008070033",
  "linkReferences": {},
  "deployedLinkReferences": {}
}