{"contracts/Dao.sol":{"Dao":{"abi":[{"inputs":[],"stateMutability":"nonpayable","type":"constructor"},{"anonymous":false,"inputs":[{"indexed":true,"internalType":"uint256","name":"proposal","type":"uint256"},{"indexed":false,"internalType":"uint256","name":"votesUp","type":"uint256"},{"indexed":false,"internalType":"uint256","name":"votesDown","type":"uint256"},{"indexed":true,"internalType":"address","name":"voter","type":"address"},{"indexed":true,"internalType":"bool","name":"votedFor","type":"bool"}],"name":"newVote","type":"event"},{"anonymous":false,"inputs":[{"indexed":true,"internalType":"uint256","name":"id","type":"uint256"},{"indexed":false,"internalType":"string","name":"description","type":"string"},{"indexed":false,"internalType":"uint256","name":"maxVotes","type":"uint256"},{"indexed":false,"internalType":"address","name":"proposer","type":"address"}],"name":"proposalCreated","type":"event"},{"anonymous":false,"inputs":[{"indexed":true,"internalType":"uint256","name":"id","type":"uint256"},{"indexed":true,"internalType":"bool","name":"passed","type":"bool"}],"name":"proposalEnded","type":"event"},{"inputs":[{"internalType":"uint256","name":"","type":"uint256"}],"name":"Proposals","outputs":[{"internalType":"uint256","name":"id","type":"uint256"},{"internalType":"bool","name":"exists","type":"bool"},{"internalType":"string","name":"description","type":"string"},{"internalType":"uint256","name":"deadline","type":"uint256"},{"internalType":"uint256","name":"votesUp","type":"uint256"},{"internalType":"uint256","name":"votesDown","type":"uint256"},{"internalType":"uint256","name":"maxVotes","type":"uint256"},{"internalType":"bool","name":"countConducted","type":"bool"},{"internalType":"bool","name":"passed","type":"bool"}],"stateMutability":"view","type":"function"},{"inputs":[{"internalType":"uint256[]","name":"tokenList","type":"uint256[]"}],"name":"addValidTokens","outputs":[],"stateMutability":"nonpayable","type":"function"},{"inputs":[{"internalType":"uint256","name":"_id","type":"uint256"}],"name":"countVotes","outputs":[],"stateMutability":"nonpayable","type":"function"},{"inputs":[{"internalType":"string","name":"_description","type":"string"},{"internalType":"address[]","name":"_canVote","type":"address[]"}],"name":"createProposal","outputs":[],"stateMutability":"nonpayable","type":"function"},{"inputs":[],"name":"owner","outputs":[{"internalType":"address","name":"","type":"address"}],"stateMutability":"view","type":"function"},{"inputs":[{"internalType":"uint256","name":"id","type":"uint256"},{"internalType":"uint256","name":"time","type":"uint256"}],"name":"updateDeadline","outputs":[],"stateMutability":"nonpayable","type":"function"},{"inputs":[{"internalType":"uint256","name":"","type":"uint256"}],"name":"validTokens","outputs":[{"internalType":"uint256","name":"","type":"uint256"}],"stateMutability":"view","type":"function"},{"inputs":[{"internalType":"uint256","name":"_id","type":"uint256"},{"internalType":"bool","name":"_vote","type":"bool"}],"name":"voteOnProposal","outputs":[],"stateMutability":"nonpayable","type":"function"}],"evm":{"bytecode":{"linkReferences":{},"object":"60806040523480156200001157600080fd5b50336000806101000a81548173ffffffffffffffffffffffffffffffffffffffff021916908373ffffffffffffffffffffffffffffffffffffffff160217905550600180819055506202a30060028190555073f4910c763ed4e47a585e2d34baa9a4b611ae448c600460006101000a81548173ffffffffffffffffffffffffffffffffffffffff021916908373ffffffffffffffffffffffffffffffffffffffff16021790555060405180602001604052807f81ed402e29ed683a45678165d6ad8d72f65629eb0000000000000100000000018152506003906001620000f992919062000100565b5062000171565b8280548282559060005260206000209081019282156200013f579160200282015b828111156200013e57825182559160200191906001019062000121565b5b5090506200014e919062000152565b5090565b5b808211156200016d57600081600090555060010162000153565b5090565b611b0380620001816000396000f3fe608060405234801561001057600080fd5b50600436106100885760003560e01c80638da5cb5b1161005b5780638da5cb5b146100fd578063be8bb7ba1461011b578063d1dbe7d814610137578063e9d3d16a1461016f57610088565b80631614665c1461008d5780631840f0ca146100a9578063260b3d53146100c5578063899b184f146100e1575b600080fd5b6100a760048036038101906100a29190611114565b61019f565b005b6100c360048036038101906100be91906110ba565b610499565b005b6100df60048036038101906100da9190610ff9565b6106b7565b005b6100fb60048036038101906100f69190611154565b6107ab565b005b61010561086a565b6040516101129190611312565b60405180910390f35b61013560048036038101906101309190611042565b61088e565b005b610151600480360381019061014c91906110ba565b6109c5565b604051610166999897969594939291906114af565b60405180910390f35b610189600480360381019061018491906110ba565b610ac2565b6040516101969190611494565b60405180910390f35b6005600083815260200190815260200160002060010160009054906101000a900460ff16610202576040517f08c379a00000000000000000000000000000000000000000000000000000000081526004016101f9906113d4565b60405180910390fd5b61020c8233610ae6565b61024b576040517f08c379a000000000000000000000000000000000000000000000000000000000815260040161024290611394565b60405180910390fd5b6005600083815260200190815260200160002060080160003373ffffffffffffffffffffffffffffffffffffffff1673ffffffffffffffffffffffffffffffffffffffff16815260200190815260200160002060009054906101000a900460ff16156102ec576040517f08c379a00000000000000000000000000000000000000000000000000000000081526004016102e3906113f4565b60405180910390fd5b4260056000848152602001908152602001600020600301541015610345576040517f08c379a000000000000000000000000000000000000000000000000000000000815260040161033c90611454565b60405180910390fd5b801561037c5760056000838152602001908152602001600020600401600081548092919061037290611779565b91905055506103a9565b6005600083815260200190815260200160002060050160008154809291906103a390611779565b91905055505b60016005600084815260200190815260200160002060080160003373ffffffffffffffffffffffffffffffffffffffff1673ffffffffffffffffffffffffffffffffffffffff16815260200190815260200160002060006101000a81548160ff0219169083151502179055508015153373ffffffffffffffffffffffffffffffffffffffff16837f14f3d6dce13f9f09a4b0f8d30c3a990b0affdc04bd73860f7611f21001d87a596005600087815260200190815260200160002060040154600560008881526020019081526020016000206005015460405161048d929190611543565b60405180910390a45050565b60008054906101000a900473ffffffffffffffffffffffffffffffffffffffff1673ffffffffffffffffffffffffffffffffffffffff163373ffffffffffffffffffffffffffffffffffffffff1614610527576040517f08c379a000000000000000000000000000000000000000000000000000000000815260040161051e90611434565b60405180910390fd5b6005600082815260200190815260200160002060010160009054906101000a900460ff1661058a576040517f08c379a0000000000000000000000000000000000000000000000000000000008152600401610581906113d4565b60405180910390fd5b600560008281526020019081526020016000206003015442116105ac57600080fd5b6005600082815260200190815260200160002060090160009054906101000a900460ff1615610610576040517f08c379a0000000000000000000000000000000000000000000000000000000008152600401610607906113b4565b60405180910390fd5b60006005600083815260200190815260200160002090508060050154816004015411156106555760018160090160016101000a81548160ff0219169083151502179055505b60018160090160006101000a81548160ff0219169083151502179055508060090160019054906101000a900460ff161515827f822e9cd5ad7320a854b162b015bf676b69b92a8ef1b93abb44165afb815be01f60405160405180910390a35050565b60008054906101000a900473ffffffffffffffffffffffffffffffffffffffff1673ffffffffffffffffffffffffffffffffffffffff163373ffffffffffffffffffffffffffffffffffffffff1614610745576040517f08c379a000000000000000000000000000000000000000000000000000000000815260040161073c90611434565b60405180910390fd5b60005b81518110156107a757600382828151811061076657610765611820565b5b60200260200101519080600181540180825580915050600190039060005260206000200160009091909190915055808061079f90611779565b915050610748565b5050565b60008054906101000a900473ffffffffffffffffffffffffffffffffffffffff1673ffffffffffffffffffffffffffffffffffffffff163373ffffffffffffffffffffffffffffffffffffffff1614610839576040517f08c379a000000000000000000000000000000000000000000000000000000000815260040161083090611474565b60405180910390fd5b8060056000848152602001908152602001600020600301600082825461085f9190611636565b925050819055505050565b60008054906101000a900473ffffffffffffffffffffffffffffffffffffffff1681565b61089733610bbe565b6108d6576040517f08c379a00000000000000000000000000000000000000000000000000000000081526004016108cd90611414565b60405180910390fd5b60006005600060015481526020019081526020016000209050600154816000018190555060018160010160006101000a81548160ff0219169083151502179055508281600201908051906020019061092f929190610ccc565b506002544261093e9190611636565b81600301819055508181600601908051906020019061095e929190610d52565b50815181600701819055506001547f3ec21697eb8018b62928e5f290d2bccf3af51e8b6cdf71fceab712977647bba9848451336040516109a093929190611356565b60405180910390a2600160008154809291906109bb90611779565b9190505550505050565b60056020528060005260406000206000915090508060000154908060010160009054906101000a900460ff1690806002018054610a0190611716565b80601f0160208091040260200160405190810160405280929190818152602001828054610a2d90611716565b8015610a7a5780601f10610a4f57610100808354040283529160200191610a7a565b820191906000526020600020905b815481529060010190602001808311610a5d57829003601f168201915b5050505050908060030154908060040154908060050154908060070154908060090160009054906101000a900460ff16908060090160019054906101000a900460ff16905089565b60038181548110610ad257600080fd5b906000526020600020016000915090505481565b600080600090505b6005600085815260200190815260200160002060060180549050811015610bb257600560008581526020019081526020016000206006018181548110610b3757610b36611820565b5b9060005260206000200160009054906101000a900473ffffffffffffffffffffffffffffffffffffffff1673ffffffffffffffffffffffffffffffffffffffff168373ffffffffffffffffffffffffffffffffffffffff161415610b9f576001915050610bb8565b8080610baa90611779565b915050610aee565b50600090505b92915050565b600080600090505b600380549050811015610cc1576001600460009054906101000a900473ffffffffffffffffffffffffffffffffffffffff1673ffffffffffffffffffffffffffffffffffffffff1662fdd58e8560038581548110610c2757610c26611820565b5b90600052602060002001546040518363ffffffff1660e01b8152600401610c4f92919061132d565b60206040518083038186803b158015610c6757600080fd5b505afa158015610c7b573d6000803e3d6000fd5b505050506040513d601f19601f82011682018060405250810190610c9f91906110e7565b10610cae576001915050610cc7565b8080610cb990611779565b915050610bc6565b50600090505b919050565b828054610cd890611716565b90600052602060002090601f016020900481019282610cfa5760008555610d41565b82601f10610d1357805160ff1916838001178555610d41565b82800160010185558215610d41579182015b82811115610d40578251825591602001919060010190610d25565b5b509050610d4e9190610ddc565b5090565b828054828255906000526020600020908101928215610dcb579160200282015b82811115610dca5782518260006101000a81548173ffffffffffffffffffffffffffffffffffffffff021916908373ffffffffffffffffffffffffffffffffffffffff16021790555091602001919060010190610d72565b5b509050610dd89190610ddc565b5090565b5b80821115610df5576000816000905550600101610ddd565b5090565b6000610e0c610e0784611591565b61156c565b90508083825260208201905082856020860282011115610e2f57610e2e611883565b5b60005b85811015610e5f5781610e458882610f1b565b845260208401935060208301925050600181019050610e32565b5050509392505050565b6000610e7c610e77846115bd565b61156c565b90508083825260208201905082856020860282011115610e9f57610e9e611883565b5b60005b85811015610ecf5781610eb58882610fcf565b845260208401935060208301925050600181019050610ea2565b5050509392505050565b6000610eec610ee7846115e9565b61156c565b905082815260208101848484011115610f0857610f07611888565b5b610f138482856116d4565b509392505050565b600081359050610f2a81611a88565b92915050565b600082601f830112610f4557610f4461187e565b5b8135610f55848260208601610df9565b91505092915050565b600082601f830112610f7357610f7261187e565b5b8135610f83848260208601610e69565b91505092915050565b600081359050610f9b81611a9f565b92915050565b600082601f830112610fb657610fb561187e565b5b8135610fc6848260208601610ed9565b91505092915050565b600081359050610fde81611ab6565b92915050565b600081519050610ff381611ab6565b92915050565b60006020828403121561100f5761100e611892565b5b600082013567ffffffffffffffff81111561102d5761102c61188d565b5b61103984828501610f5e565b91505092915050565b6000806040838503121561105957611058611892565b5b600083013567ffffffffffffffff8111156110775761107661188d565b5b61108385828601610fa1565b925050602083013567ffffffffffffffff8111156110a4576110a361188d565b5b6110b085828601610f30565b9150509250929050565b6000602082840312156110d0576110cf611892565b5b60006110de84828501610fcf565b91505092915050565b6000602082840312156110fd576110fc611892565b5b600061110b84828501610fe4565b91505092915050565b6000806040838503121561112b5761112a611892565b5b600061113985828601610fcf565b925050602061114a85828601610f8c565b9150509250929050565b6000806040838503121561116b5761116a611892565b5b600061117985828601610fcf565b925050602061118a85828601610fcf565b9150509250929050565b61119d8161168c565b82525050565b6111ac8161169e565b82525050565b60006111bd8261161a565b6111c78185611625565b93506111d78185602086016116e3565b6111e081611897565b840191505092915050565b60006111f8601d83611625565b9150611203826118a8565b602082019050919050565b600061121b602983611625565b9150611226826118d1565b604082019050919050565b600061123e601d83611625565b915061124982611920565b602082019050919050565b6000611261601783611625565b915061126c82611949565b602082019050919050565b6000611284602483611625565b915061128f82611972565b604082019050919050565b60006112a7601683611625565b91506112b2826119c1565b602082019050919050565b60006112ca602983611625565b91506112d5826119ea565b604082019050919050565b60006112ed603083611625565b91506112f882611a39565b604082019050919050565b61130c816116ca565b82525050565b60006020820190506113276000830184611194565b92915050565b60006040820190506113426000830185611194565b61134f6020830184611303565b9392505050565b6000606082019050818103600083015261137081866111b2565b905061137f6020830185611303565b61138c6040830184611194565b949350505050565b600060208201905081810360008301526113ad816111eb565b9050919050565b600060208201905081810360008301526113cd8161120e565b9050919050565b600060208201905081810360008301526113ed81611231565b9050919050565b6000602082019050818103600083015261140d81611254565b9050919050565b6000602082019050818103600083015261142d81611277565b9050919050565b6000602082019050818103600083015261144d8161129a565b9050919050565b6000602082019050818103600083015261146d816112bd565b9050919050565b6000602082019050818103600083015261148d816112e0565b9050919050565b60006020820190506114a96000830184611303565b92915050565b6000610120820190506114c5600083018c611303565b6114d2602083018b6111a3565b81810360408301526114e4818a6111b2565b90506114f36060830189611303565b6115006080830188611303565b61150d60a0830187611303565b61151a60c0830186611303565b61152760e08301856111a3565b6115356101008301846111a3565b9a9950505050505050505050565b60006040820190506115586000830185611303565b6115656020830184611303565b9392505050565b6000611576611587565b90506115828282611748565b919050565b6000604051905090565b600067ffffffffffffffff8211156115ac576115ab61184f565b5b602082029050602081019050919050565b600067ffffffffffffffff8211156115d8576115d761184f565b5b602082029050602081019050919050565b600067ffffffffffffffff8211156116045761160361184f565b5b61160d82611897565b9050602081019050919050565b600081519050919050565b600082825260208201905092915050565b6000611641826116ca565b915061164c836116ca565b9250827fffffffffffffffffffffffffffffffffffffffffffffffffffffffffffffffff03821115611681576116806117c2565b5b828201905092915050565b6000611697826116aa565b9050919050565b60008115159050919050565b600073ffffffffffffffffffffffffffffffffffffffff82169050919050565b6000819050919050565b82818337600083830152505050565b60005b838110156117015780820151818401526020810190506116e6565b83811115611710576000848401525b50505050565b6000600282049050600182168061172e57607f821691505b60208210811415611742576117416117f1565b5b50919050565b61175182611897565b810181811067ffffffffffffffff821117156117705761176f61184f565b5b80604052505050565b6000611784826116ca565b91507fffffffffffffffffffffffffffffffffffffffffffffffffffffffffffffffff8214156117b7576117b66117c2565b5b600182019050919050565b7f4e487b7100000000000000000000000000000000000000000000000000000000600052601160045260246000fd5b7f4e487b7100000000000000000000000000000000000000000000000000000000600052602260045260246000fd5b7f4e487b7100000000000000000000000000000000000000000000000000000000600052603260045260246000fd5b7f4e487b7100000000000000000000000000000000000000000000000000000000600052604160045260246000fd5b600080fd5b600080fd5b600080fd5b600080fd5b600080fd5b6000601f19601f8301169050919050565b7f596f7520617265206e6f7420656c696769626c6520746f20766f746521000000600082015250565b7f50726f706f73616c20636f756e7420686173206265656e20616c72656164792060008201527f636f6e6475637465640000000000000000000000000000000000000000000000602082015250565b7f546869732070726f706f73616c20646f6573206e6f742065786973742e000000600082015250565b7f596f75206861766520616c726561647920766f74656421000000000000000000600082015250565b7f596f752061726520656c696769626c6520746f206372656174652070726f706f60008201527f73616c2100000000000000000000000000000000000000000000000000000000602082015250565b7f596f7520617265206e6f7420746865206f776e65722e00000000000000000000600082015250565b7f54686520646561646c696e6520666f7220746869732070726f706f73616c206960008201527f73207061737365642e0000000000000000000000000000000000000000000000602082015250565b7f4f6e6c7920746865206f776e6572206f6620636f6e74726163742063616e207560008201527f706461746520646561646c696e65732e00000000000000000000000000000000602082015250565b611a918161168c565b8114611a9c57600080fd5b50565b611aa88161169e565b8114611ab357600080fd5b50565b611abf816116ca565b8114611aca57600080fd5b5056fea26469706673582212201f804b434e7ed67c158cf855594bffc188fc25d1de6334cf1818ce5c9942e17364736f6c63430008070033","opcodes":"PUSH1 0x80 PUSH1 0x40 MSTORE CALLVALUE DUP1 ISZERO PUSH3 0x11 JUMPI PUSH1 0x0 DUP1 REVERT JUMPDEST POP CALLER PUSH1 0x0 DUP1 PUSH2 0x100 EXP DUP2 SLOAD DUP2 PUSH20 0xFFFFFFFFFFFFFFFFFFFFFFFFFFFFFFFFFFFFFFFF MUL NOT AND SWAP1 DUP4 PUSH20 0xFFFFFFFFFFFFFFFFFFFFFFFFFFFFFFFFFFFFFFFF AND MUL OR SWAP1 SSTORE POP PUSH1 0x1 DUP1 DUP2 SWAP1 SSTORE POP PUSH3 0x2A300 PUSH1 0x2 DUP2 SWAP1 SSTORE POP PUSH20 0xF4910C763ED4E47A585E2D34BAA9A4B611AE448C PUSH1 0x4 PUSH1 0x0 PUSH2 0x100 EXP DUP2 SLOAD DUP2 PUSH20 0xFFFFFFFFFFFFFFFFFFFFFFFFFFFFFFFFFFFFFFFF MUL NOT AND SWAP1 DUP4 PUSH20 0xFFFFFFFFFFFFFFFFFFFFFFFFFFFFFFFFFFFFFFFF AND MUL OR SWAP1 SSTORE POP PUSH1 0x40 MLOAD DUP1 PUSH1 0x20 ADD PUSH1 0x40 MSTORE DUP1 PUSH32 0x81ED402E29ED683A45678165D6AD8D72F65629EB000000000000010000000001 DUP2 MSTORE POP PUSH1 0x3 SWAP1 PUSH1 0x1 PUSH3 0xF9 SWAP3 SWAP2 SWAP1 PUSH3 0x100 JUMP JUMPDEST POP PUSH3 0x171 JUMP JUMPDEST DUP3 DUP1 SLOAD DUP3 DUP3 SSTORE SWAP1 PUSH1 0x0 MSTORE PUSH1 0x20 PUSH1 0x0 KECCAK256 SWAP1 DUP2 ADD SWAP3 DUP3 ISZERO PUSH3 0x13F JUMPI SWAP2 PUSH1 0x20 MUL DUP3 ADD JUMPDEST DUP3 DUP2 GT ISZERO PUSH3 0x13E JUMPI DUP3 MLOAD DUP3 SSTORE SWAP2 PUSH1 0x20 ADD SWAP2 SWAP1 PUSH1 0x1 ADD SWAP1 PUSH3 0x121 JUMP JUMPDEST JUMPDEST POP SWAP1 POP PUSH3 0x14E SWAP2 SWAP1 PUSH3 0x152 JUMP JUMPDEST POP SWAP1 JUMP JUMPDEST JUMPDEST DUP1 DUP3 GT ISZERO PUSH3 0x16D JUMPI PUSH1 0x0 DUP2 PUSH1 0x0 SWAP1 SSTORE POP PUSH1 0x1 ADD PUSH3 0x153 JUMP JUMPDEST POP SWAP1 JUMP JUMPDEST PUSH2 0x1B03 DUP1 PUSH3 0x181 PUSH1 0x0 CODECOPY PUSH1 0x0 RETURN INVALID PUSH1 0x80 PUSH1 0x40 MSTORE CALLVALUE DUP1 ISZERO PUSH2 0x10 JUMPI PUSH1 0x0 DUP1 REVERT JUMPDEST POP PUSH1 0x4 CALLDATASIZE LT PUSH2 0x88 JUMPI PUSH1 0x0 CALLDATALOAD PUSH1 0xE0 SHR DUP1 PUSH4 0x8DA5CB5B GT PUSH2 0x5B JUMPI DUP1 PUSH4 0x8DA5CB5B EQ PUSH2 0xFD JUMPI DUP1 PUSH4 0xBE8BB7BA EQ PUSH2 0x11B JUMPI DUP1 PUSH4 0xD1DBE7D8 EQ PUSH2 0x137 JUMPI DUP1 PUSH4 0xE9D3D16A EQ PUSH2 0x16F JUMPI PUSH2 0x88 JUMP JUMPDEST DUP1 PUSH4 0x1614665C EQ PUSH2 0x8D JUMPI DUP1 PUSH4 0x1840F0CA EQ PUSH2 0xA9 JUMPI DUP1 PUSH4 0x260B3D53 EQ PUSH2 0xC5 JUMPI DUP1 PUSH4 0x899B184F EQ PUSH2 0xE1 JUMPI JUMPDEST PUSH1 0x0 DUP1 REVERT JUMPDEST PUSH2 0xA7 PUSH1 0x4 DUP1 CALLDATASIZE SUB DUP2 ADD SWAP1 PUSH2 0xA2 SWAP2 SWAP1 PUSH2 0x1114 JUMP JUMPDEST PUSH2 0x19F JUMP JUMPDEST STOP JUMPDEST PUSH2 0xC3 PUSH1 0x4 DUP1 CALLDATASIZE SUB DUP2 ADD SWAP1 PUSH2 0xBE SWAP2 SWAP1 PUSH2 0x10BA JUMP JUMPDEST PUSH2 0x499 JUMP JUMPDEST STOP JUMPDEST PUSH2 0xDF PUSH1 0x4 DUP1 CALLDATASIZE SUB DUP2 ADD SWAP1 PUSH2 0xDA SWAP2 SWAP1 PUSH2 0xFF9 JUMP JUMPDEST PUSH2 0x6B7 JUMP JUMPDEST STOP JUMPDEST PUSH2 0xFB PUSH1 0x4 DUP1 CALLDATASIZE SUB DUP2 ADD SWAP1 PUSH2 0xF6 SWAP2 SWAP1 PUSH2 0x1154 JUMP JUMPDEST PUSH2 0x7AB JUMP JUMPDEST STOP JUMPDEST PUSH2 0x105 PUSH2 0x86A JUMP JUMPDEST PUSH1 0x40 MLOAD PUSH2 0x112 SWAP2 SWAP1 PUSH2 0x1312 JUMP JUMPDEST PUSH1 0x40 MLOAD DUP1 SWAP2 SUB SWAP1 RETURN JUMPDEST PUSH2 0x135 PUSH1 0x4 DUP1 CALLDATASIZE SUB DUP2 ADD SWAP1 PUSH2 0x130 SWAP2 SWAP1 PUSH2 0x1042 JUMP JUMPDEST PUSH2 0x88E JUMP JUMPDEST STOP JUMPDEST PUSH2 0x151 PUSH1 0x4 DUP1 CALLDATASIZE SUB DUP2 ADD SWAP1 PUSH2 0x14C SWAP2 SWAP1 PUSH2 0x10BA JUMP JUMPDEST PUSH2 0x9C5 JUMP JUMPDEST PUSH1 0x40 MLOAD PUSH2 0x166 SWAP10 SWAP9 SWAP8 SWAP7 SWAP6 SWAP5 SWAP4 SWAP3 SWAP2 SWAP1 PUSH2 0x14AF JUMP JUMPDEST PUSH1 0x40 MLOAD DUP1 SWAP2 SUB SWAP1 RETURN JUMPDEST PUSH2 0x189 PUSH1 0x4 DUP1 CALLDATASIZE SUB DUP2 ADD SWAP1 PUSH2 0x184 SWAP2 SWAP1 PUSH2 0x10BA JUMP JUMPDEST PUSH2 0xAC2 JUMP JUMPDEST PUSH1 0x40 MLOAD PUSH2 0x196 SWAP2 SWAP1 PUSH2 0x1494 JUMP JUMPDEST PUSH1 0x40 MLOAD DUP1 SWAP2 SUB SWAP1 RETURN JUMPDEST PUSH1 0x5 PUSH1 0x0 DUP4 DUP2 MSTORE PUSH1 0x20 ADD SWAP1 DUP2 MSTORE PUSH1 0x20 ADD PUSH1 0x0 KECCAK256 PUSH1 0x1 ADD PUSH1 0x0 SWAP1 SLOAD SWAP1 PUSH2 0x100 EXP SWAP1 DIV PUSH1 0xFF AND PUSH2 0x202 JUMPI PUSH1 0x40 MLOAD PUSH32 0x8C379A000000000000000000000000000000000000000000000000000000000 DUP2 MSTORE PUSH1 0x4 ADD PUSH2 0x1F9 SWAP1 PUSH2 0x13D4 JUMP JUMPDEST PUSH1 0x40 MLOAD DUP1 SWAP2 SUB SWAP1 REVERT JUMPDEST PUSH2 0x20C DUP3 CALLER PUSH2 0xAE6 JUMP JUMPDEST PUSH2 0x24B JUMPI PUSH1 0x40 MLOAD PUSH32 0x8C379A000000000000000000000000000000000000000000000000000000000 DUP2 MSTORE PUSH1 0x4 ADD PUSH2 0x242 SWAP1 PUSH2 0x1394 JUMP JUMPDEST PUSH1 0x40 MLOAD DUP1 SWAP2 SUB SWAP1 REVERT JUMPDEST PUSH1 0x5 PUSH1 0x0 DUP4 DUP2 MSTORE PUSH1 0x20 ADD SWAP1 DUP2 MSTORE PUSH1 0x20 ADD PUSH1 0x0 KECCAK256 PUSH1 0x8 ADD PUSH1 0x0 CALLER PUSH20 0xFFFFFFFFFFFFFFFFFFFFFFFFFFFFFFFFFFFFFFFF AND PUSH20 0xFFFFFFFFFFFFFFFFFFFFFFFFFFFFFFFFFFFFFFFF AND DUP2 MSTORE PUSH1 0x20 ADD SWAP1 DUP2 MSTORE PUSH1 0x20 ADD PUSH1 0x0 KECCAK256 PUSH1 0x0 SWAP1 SLOAD SWAP1 PUSH2 0x100 EXP SWAP1 DIV PUSH1 0xFF AND ISZERO PUSH2 0x2EC JUMPI PUSH1 0x40 MLOAD PUSH32 0x8C379A000000000000000000000000000000000000000000000000000000000 DUP2 MSTORE PUSH1 0x4 ADD PUSH2 0x2E3 SWAP1 PUSH2 0x13F4 JUMP JUMPDEST PUSH1 0x40 MLOAD DUP1 SWAP2 SUB SWAP1 REVERT JUMPDEST TIMESTAMP PUSH1 0x5 PUSH1 0x0 DUP5 DUP2 MSTORE PUSH1 0x20 ADD SWAP1 DUP2 MSTORE PUSH1 0x20 ADD PUSH1 0x0 KECCAK256 PUSH1 0x3 ADD SLOAD LT ISZERO PUSH2 0x345 JUMPI PUSH1 0x40 MLOAD PUSH32 0x8C379A000000000000000000000000000000000000000000000000000000000 DUP2 MSTORE PUSH1 0x4 ADD PUSH2 0x33C SWAP1 PUSH2 0x1454 JUMP JUMPDEST PUSH1 0x40 MLOAD DUP1 SWAP2 SUB SWAP1 REVERT JUMPDEST DUP1 ISZERO PUSH2 0x37C JUMPI PUSH1 0x5 PUSH1 0x0 DUP4 DUP2 MSTORE PUSH1 0x20 ADD SWAP1 DUP2 MSTORE PUSH1 0x20 ADD PUSH1 0x0 KECCAK256 PUSH1 0x4 ADD PUSH1 0x0 DUP2 SLOAD DUP1 SWAP3 SWAP2 SWAP1 PUSH2 0x372 SWAP1 PUSH2 0x1779 JUMP JUMPDEST SWAP2 SWAP1 POP SSTORE POP PUSH2 0x3A9 JUMP JUMPDEST PUSH1 0x5 PUSH1 0x0 DUP4 DUP2 MSTORE PUSH1 0x20 ADD SWAP1 DUP2 MSTORE PUSH1 0x20 ADD PUSH1 0x0 KECCAK256 PUSH1 0x5 ADD PUSH1 0x0 DUP2 SLOAD DUP1 SWAP3 SWAP2 SWAP1 PUSH2 0x3A3 SWAP1 PUSH2 0x1779 JUMP JUMPDEST SWAP2 SWAP1 POP SSTORE POP JUMPDEST PUSH1 0x1 PUSH1 0x5 PUSH1 0x0 DUP5 DUP2 MSTORE PUSH1 0x20 ADD SWAP1 DUP2 MSTORE PUSH1 0x20 ADD PUSH1 0x0 KECCAK256 PUSH1 0x8 ADD PUSH1 0x0 CALLER PUSH20 0xFFFFFFFFFFFFFFFFFFFFFFFFFFFFFFFFFFFFFFFF AND PUSH20 0xFFFFFFFFFFFFFFFFFFFFFFFFFFFFFFFFFFFFFFFF AND DUP2 MSTORE PUSH1 0x20 ADD SWAP1 DUP2 MSTORE PUSH1 0x20 ADD PUSH1 0x0 KECCAK256 PUSH1 0x0 PUSH2 0x100 EXP DUP2 SLOAD DUP2 PUSH1 0xFF MUL NOT AND SWAP1 DUP4 ISZERO ISZERO MUL OR SWAP1 SSTORE POP DUP1 ISZERO ISZERO CALLER PUSH20 0xFFFFFFFFFFFFFFFFFFFFFFFFFFFFFFFFFFFFFFFF AND DUP4 PUSH32 0x14F3D6DCE13F9F09A4B0F8D30C3A990B0AFFDC04BD73860F7611F21001D87A59 PUSH1 0x5 PUSH1 0x0 DUP8 DUP2 MSTORE PUSH1 0x20 ADD SWAP1 DUP2 MSTORE PUSH1 0x20 ADD PUSH1 0x0 KECCAK256 PUSH1 0x4 ADD SLOAD PUSH1 0x5 PUSH1 0x0 DUP9 DUP2 MSTORE PUSH1 0x20 ADD SWAP1 DUP2 MSTORE PUSH1 0x20 ADD PUSH1 0x0 KECCAK256 PUSH1 0x5 ADD SLOAD PUSH1 0x40 MLOAD PUSH2 0x48D SWAP3 SWAP2 SWAP1 PUSH2 0x1543 JUMP JUMPDEST PUSH1 0x40 MLOAD DUP1 SWAP2 SUB SWAP1 LOG4 POP POP JUMP JUMPDEST PUSH1 0x0 DUP1 SLOAD SWAP1 PUSH2 0x100 EXP SWAP1 DIV PUSH20 0xFFFFFFFFFFFFFFFFFFFFFFFFFFFFFFFFFFFFFFFF AND PUSH20 0xFFFFFFFFFFFFFFFFFFFFFFFFFFFFFFFFFFFFFFFF AND CALLER PUSH20 0xFFFFFFFFFFFFFFFFFFFFFFFFFFFFFFFFFFFFFFFF AND EQ PUSH2 0x527 JUMPI PUSH1 0x40 MLOAD PUSH32 0x8C379A000000000000000000000000000000000000000000000000000000000 DUP2 MSTORE PUSH1 0x4 ADD PUSH2 0x51E SWAP1 PUSH2 0x1434 JUMP JUMPDEST PUSH1 0x40 MLOAD DUP1 SWAP2 SUB SWAP1 REVERT JUMPDEST PUSH1 0x5 PUSH1 0x0 DUP3 DUP2 MSTORE PUSH1 0x20 ADD SWAP1 DUP2 MSTORE PUSH1 0x20 ADD PUSH1 0x0 KECCAK256 PUSH1 0x1 ADD PUSH1 0x0 SWAP1 SLOAD SWAP1 PUSH2 0x100 EXP SWAP1 DIV PUSH1 0xFF AND PUSH2 0x58A JUMPI PUSH1 0x40 MLOAD PUSH32 0x8C379A000000000000000000000000000000000000000000000000000000000 DUP2 MSTORE PUSH1 0x4 ADD PUSH2 0x581 SWAP1 PUSH2 0x13D4 JUMP JUMPDEST PUSH1 0x40 MLOAD DUP1 SWAP2 SUB SWAP1 REVERT JUMPDEST PUSH1 0x5 PUSH1 0x0 DUP3 DUP2 MSTORE PUSH1 0x20 ADD SWAP1 DUP2 MSTORE PUSH1 0x20 ADD PUSH1 0x0 KECCAK256 PUSH1 0x3 ADD SLOAD TIMESTAMP GT PUSH2 0x5AC JUMPI PUSH1 0x0 DUP1 REVERT JUMPDEST PUSH1 0x5 PUSH1 0x0 DUP3 DUP2 MSTORE PUSH1 0x20 ADD SWAP1 DUP2 MSTORE PUSH1 0x20 ADD PUSH1 0x0 KECCAK256 PUSH1 0x9 ADD PUSH1 0x0 SWAP1 SLOAD SWAP1 PUSH2 0x100 EXP SWAP1 DIV PUSH1 0xFF AND ISZERO PUSH2 0x610 JUMPI PUSH1 0x40 MLOAD PUSH32 0x8C379A000000000000000000000000000000000000000000000000000000000 DUP2 MSTORE PUSH1 0x4 ADD PUSH2 0x607 SWAP1 PUSH2 0x13B4 JUMP JUMPDEST PUSH1 0x40 MLOAD DUP1 SWAP2 SUB SWAP1 REVERT JUMPDEST PUSH1 0x0 PUSH1 0x5 PUSH1 0x0 DUP4 DUP2 MSTORE PUSH1 0x20 ADD SWAP1 DUP2 MSTORE PUSH1 0x20 ADD PUSH1 0x0 KECCAK256 SWAP1 POP DUP1 PUSH1 0x5 ADD SLOAD DUP2 PUSH1 0x4 ADD SLOAD GT ISZERO PUSH2 0x655 JUMPI PUSH1 0x1 DUP2 PUSH1 0x9 ADD PUSH1 0x1 PUSH2 0x100 EXP DUP2 SLOAD DUP2 PUSH1 0xFF MUL NOT AND SWAP1 DUP4 ISZERO ISZERO MUL OR SWAP1 SSTORE POP JUMPDEST PUSH1 0x1 DUP2 PUSH1 0x9 ADD PUSH1 0x0 PUSH2 0x100 EXP DUP2 SLOAD DUP2 PUSH1 0xFF MUL NOT AND SWAP1 DUP4 ISZERO ISZERO MUL OR SWAP1 SSTORE POP DUP1 PUSH1 0x9 ADD PUSH1 0x1 SWAP1 SLOAD SWAP1 PUSH2 0x100 EXP SWAP1 DIV PUSH1 0xFF AND ISZERO ISZERO DUP3 PUSH32 0x822E9CD5AD7320A854B162B015BF676B69B92A8EF1B93ABB44165AFB815BE01F PUSH1 0x40 MLOAD PUSH1 0x40 MLOAD DUP1 SWAP2 SUB SWAP1 LOG3 POP POP JUMP JUMPDEST PUSH1 0x0 DUP1 SLOAD SWAP1 PUSH2 0x100 EXP SWAP1 DIV PUSH20 0xFFFFFFFFFFFFFFFFFFFFFFFFFFFFFFFFFFFFFFFF AND PUSH20 0xFFFFFFFFFFFFFFFFFFFFFFFFFFFFFFFFFFFFFFFF AND CALLER PUSH20 0xFFFFFFFFFFFFFFFFFFFFFFFFFFFFFFFFFFFFFFFF AND EQ PUSH2 0x745 JUMPI PUSH1 0x40 MLOAD PUSH32 0x8C379A000000000000000000000000000000000000000000000000000000000 DUP2 MSTORE PUSH1 0x4 ADD PUSH2 0x73C SWAP1 PUSH2 0x1434 JUMP JUMPDEST PUSH1 0x40 MLOAD DUP1 SWAP2 SUB SWAP1 REVERT JUMPDEST PUSH1 0x0 JUMPDEST DUP2 MLOAD DUP2 LT ISZERO PUSH2 0x7A7 JUMPI PUSH1 0x3 DUP3 DUP3 DUP2 MLOAD DUP2 LT PUSH2 0x766 JUMPI PUSH2 0x765 PUSH2 0x1820 JUMP JUMPDEST JUMPDEST PUSH1 0x20 MUL PUSH1 0x20 ADD ADD MLOAD SWAP1 DUP1 PUSH1 0x1 DUP2 SLOAD ADD DUP1 DUP3 SSTORE DUP1 SWAP2 POP POP PUSH1 0x1 SWAP1 SUB SWAP1 PUSH1 0x0 MSTORE PUSH1 0x20 PUSH1 0x0 KECCAK256 ADD PUSH1 0x0 SWAP1 SWAP2 SWAP1 SWAP2 SWAP1 SWAP2 POP SSTORE DUP1 DUP1 PUSH2 0x79F SWAP1 PUSH2 0x1779 JUMP JUMPDEST SWAP2 POP POP PUSH2 0x748 JUMP JUMPDEST POP POP JUMP JUMPDEST PUSH1 0x0 DUP1 SLOAD SWAP1 PUSH2 0x100 EXP SWAP1 DIV PUSH20 0xFFFFFFFFFFFFFFFFFFFFFFFFFFFFFFFFFFFFFFFF AND PUSH20 0xFFFFFFFFFFFFFFFFFFFFFFFFFFFFFFFFFFFFFFFF AND CALLER PUSH20 0xFFFFFFFFFFFFFFFFFFFFFFFFFFFFFFFFFFFFFFFF AND EQ PUSH2 0x839 JUMPI PUSH1 0x40 MLOAD PUSH32 0x8C379A000000000000000000000000000000000000000000000000000000000 DUP2 MSTORE PUSH1 0x4 ADD PUSH2 0x830 SWAP1 PUSH2 0x1474 JUMP JUMPDEST PUSH1 0x40 MLOAD DUP1 SWAP2 SUB SWAP1 REVERT JUMPDEST DUP1 PUSH1 0x5 PUSH1 0x0 DUP5 DUP2 MSTORE PUSH1 0x20 ADD SWAP1 DUP2 MSTORE PUSH1 0x20 ADD PUSH1 0x0 KECCAK256 PUSH1 0x3 ADD PUSH1 0x0 DUP3 DUP3 SLOAD PUSH2 0x85F SWAP2 SWAP1 PUSH2 0x1636 JUMP JUMPDEST SWAP3 POP POP DUP2 SWAP1 SSTORE POP POP POP JUMP JUMPDEST PUSH1 0x0 DUP1 SLOAD SWAP1 PUSH2 0x100 EXP SWAP1 DIV PUSH20 0xFFFFFFFFFFFFFFFFFFFFFFFFFFFFFFFFFFFFFFFF AND DUP2 JUMP JUMPDEST PUSH2 0x897 CALLER PUSH2 0xBBE JUMP JUMPDEST PUSH2 0x8D6 JUMPI PUSH1 0x40 MLOAD PUSH32 0x8C379A000000000000000000000000000000000000000000000000000000000 DUP2 MSTORE PUSH1 0x4 ADD PUSH2 0x8CD SWAP1 PUSH2 0x1414 JUMP JUMPDEST PUSH1 0x40 MLOAD DUP1 SWAP2 SUB SWAP1 REVERT JUMPDEST PUSH1 0x0 PUSH1 0x5 PUSH1 0x0 PUSH1 0x1 SLOAD DUP2 MSTORE PUSH1 0x20 ADD SWAP1 DUP2 MSTORE PUSH1 0x20 ADD PUSH1 0x0 KECCAK256 SWAP1 POP PUSH1 0x1 SLOAD DUP2 PUSH1 0x0 ADD DUP2 SWAP1 SSTORE POP PUSH1 0x1 DUP2 PUSH1 0x1 ADD PUSH1 0x0 PUSH2 0x100 EXP DUP2 SLOAD DUP2 PUSH1 0xFF MUL NOT AND SWAP1 DUP4 ISZERO ISZERO MUL OR SWAP1 SSTORE POP DUP3 DUP2 PUSH1 0x2 ADD SWAP1 DUP1 MLOAD SWAP1 PUSH1 0x20 ADD SWAP1 PUSH2 0x92F SWAP3 SWAP2 SWAP1 PUSH2 0xCCC JUMP JUMPDEST POP PUSH1 0x2 SLOAD TIMESTAMP PUSH2 0x93E SWAP2 SWAP1 PUSH2 0x1636 JUMP JUMPDEST DUP2 PUSH1 0x3 ADD DUP2 SWAP1 SSTORE POP DUP2 DUP2 PUSH1 0x6 ADD SWAP1 DUP1 MLOAD SWAP1 PUSH1 0x20 ADD SWAP1 PUSH2 0x95E SWAP3 SWAP2 SWAP1 PUSH2 0xD52 JUMP JUMPDEST POP DUP2 MLOAD DUP2 PUSH1 0x7 ADD DUP2 SWAP1 SSTORE POP PUSH1 0x1 SLOAD PUSH32 0x3EC21697EB8018B62928E5F290D2BCCF3AF51E8B6CDF71FCEAB712977647BBA9 DUP5 DUP5 MLOAD CALLER PUSH1 0x40 MLOAD PUSH2 0x9A0 SWAP4 SWAP3 SWAP2 SWAP1 PUSH2 0x1356 JUMP JUMPDEST PUSH1 0x40 MLOAD DUP1 SWAP2 SUB SWAP1 LOG2 PUSH1 0x1 PUSH1 0x0 DUP2 SLOAD DUP1 SWAP3 SWAP2 SWAP1 PUSH2 0x9BB SWAP1 PUSH2 0x1779 JUMP JUMPDEST SWAP2 SWAP1 POP SSTORE POP POP POP POP JUMP JUMPDEST PUSH1 0x5 PUSH1 0x20 MSTORE DUP1 PUSH1 0x0 MSTORE PUSH1 0x40 PUSH1 0x0 KECCAK256 PUSH1 0x0 SWAP2 POP SWAP1 POP DUP1 PUSH1 0x0 ADD SLOAD SWAP1 DUP1 PUSH1 0x1 ADD PUSH1 0x0 SWAP1 SLOAD SWAP1 PUSH2 0x100 EXP SWAP1 DIV PUSH1 0xFF AND SWAP1 DUP1 PUSH1 0x2 ADD DUP1 SLOAD PUSH2 0xA01 SWAP1 PUSH2 0x1716 JUMP JUMPDEST DUP1 PUSH1 0x1F ADD PUSH1 0x20 DUP1 SWAP2 DIV MUL PUSH1 0x20 ADD PUSH1 0x40 MLOAD SWAP1 DUP2 ADD PUSH1 0x40 MSTORE DUP1 SWAP3 SWAP2 SWAP1 DUP2 DUP2 MSTORE PUSH1 0x20 ADD DUP3 DUP1 SLOAD PUSH2 0xA2D SWAP1 PUSH2 0x1716 JUMP JUMPDEST DUP1 ISZERO PUSH2 0xA7A JUMPI DUP1 PUSH1 0x1F LT PUSH2 0xA4F JUMPI PUSH2 0x100 DUP1 DUP4 SLOAD DIV MUL DUP4 MSTORE SWAP2 PUSH1 0x20 ADD SWAP2 PUSH2 0xA7A JUMP JUMPDEST DUP3 ADD SWAP2 SWAP1 PUSH1 0x0 MSTORE PUSH1 0x20 PUSH1 0x0 KECCAK256 SWAP1 JUMPDEST DUP2 SLOAD DUP2 MSTORE SWAP1 PUSH1 0x1 ADD SWAP1 PUSH1 0x20 ADD DUP1 DUP4 GT PUSH2 0xA5D JUMPI DUP3 SWAP1 SUB PUSH1 0x1F AND DUP3 ADD SWAP2 JUMPDEST POP POP POP POP POP SWAP1 DUP1 PUSH1 0x3 ADD SLOAD SWAP1 DUP1 PUSH1 0x4 ADD SLOAD SWAP1 DUP1 PUSH1 0x5 ADD SLOAD SWAP1 DUP1 PUSH1 0x7 ADD SLOAD SWAP1 DUP1 PUSH1 0x9 ADD PUSH1 0x0 SWAP1 SLOAD SWAP1 PUSH2 0x100 EXP SWAP1 DIV PUSH1 0xFF AND SWAP1 DUP1 PUSH1 0x9 ADD PUSH1 0x1 SWAP1 SLOAD SWAP1 PUSH2 0x100 EXP SWAP1 DIV PUSH1 0xFF AND SWAP1 POP DUP10 JUMP JUMPDEST PUSH1 0x3 DUP2 DUP2 SLOAD DUP2 LT PUSH2 0xAD2 JUMPI PUSH1 0x0 DUP1 REVERT JUMPDEST SWAP1 PUSH1 0x0 MSTORE PUSH1 0x20 PUSH1 0x0 KECCAK256 ADD PUSH1 0x0 SWAP2 POP SWAP1 POP SLOAD DUP2 JUMP JUMPDEST PUSH1 0x0 DUP1 PUSH1 0x0 SWAP1 POP JUMPDEST PUSH1 0x5 PUSH1 0x0 DUP6 DUP2 MSTORE PUSH1 0x20 ADD SWAP1 DUP2 MSTORE PUSH1 0x20 ADD PUSH1 0x0 KECCAK256 PUSH1 0x6 ADD DUP1 SLOAD SWAP1 POP DUP2 LT ISZERO PUSH2 0xBB2 JUMPI PUSH1 0x5 PUSH1 0x0 DUP6 DUP2 MSTORE PUSH1 0x20 ADD SWAP1 DUP2 MSTORE PUSH1 0x20 ADD PUSH1 0x0 KECCAK256 PUSH1 0x6 ADD DUP2 DUP2 SLOAD DUP2 LT PUSH2 0xB37 JUMPI PUSH2 0xB36 PUSH2 0x1820 JUMP JUMPDEST JUMPDEST SWAP1 PUSH1 0x0 MSTORE PUSH1 0x20 PUSH1 0x0 KECCAK256 ADD PUSH1 0x0 SWAP1 SLOAD SWAP1 PUSH2 0x100 EXP SWAP1 DIV PUSH20 0xFFFFFFFFFFFFFFFFFFFFFFFFFFFFFFFFFFFFFFFF AND PUSH20 0xFFFFFFFFFFFFFFFFFFFFFFFFFFFFFFFFFFFFFFFF AND DUP4 PUSH20 0xFFFFFFFFFFFFFFFFFFFFFFFFFFFFFFFFFFFFFFFF AND EQ ISZERO PUSH2 0xB9F JUMPI PUSH1 0x1 SWAP2 POP POP PUSH2 0xBB8 JUMP JUMPDEST DUP1 DUP1 PUSH2 0xBAA SWAP1 PUSH2 0x1779 JUMP JUMPDEST SWAP2 POP POP PUSH2 0xAEE JUMP JUMPDEST POP PUSH1 0x0 SWAP1 POP JUMPDEST SWAP3 SWAP2 POP POP JUMP JUMPDEST PUSH1 0x0 DUP1 PUSH1 0x0 SWAP1 POP JUMPDEST PUSH1 0x3 DUP1 SLOAD SWAP1 POP DUP2 LT ISZERO PUSH2 0xCC1 JUMPI PUSH1 0x1 PUSH1 0x4 PUSH1 0x0 SWAP1 SLOAD SWAP1 PUSH2 0x100 EXP SWAP1 DIV PUSH20 0xFFFFFFFFFFFFFFFFFFFFFFFFFFFFFFFFFFFFFFFF AND PUSH20 0xFFFFFFFFFFFFFFFFFFFFFFFFFFFFFFFFFFFFFFFF AND PUSH3 0xFDD58E DUP6 PUSH1 0x3 DUP6 DUP2 SLOAD DUP2 LT PUSH2 0xC27 JUMPI PUSH2 0xC26 PUSH2 0x1820 JUMP JUMPDEST JUMPDEST SWAP1 PUSH1 0x0 MSTORE PUSH1 0x20 PUSH1 0x0 KECCAK256 ADD SLOAD PUSH1 0x40 MLOAD DUP4 PUSH4 0xFFFFFFFF AND PUSH1 0xE0 SHL DUP2 MSTORE PUSH1 0x4 ADD PUSH2 0xC4F SWAP3 SWAP2 SWAP1 PUSH2 0x132D JUMP JUMPDEST PUSH1 0x20 PUSH1 0x40 MLOAD DUP1 DUP4 SUB DUP2 DUP7 DUP1 EXTCODESIZE ISZERO DUP1 ISZERO PUSH2 0xC67 JUMPI PUSH1 0x0 DUP1 REVERT JUMPDEST POP GAS STATICCALL ISZERO DUP1 ISZERO PUSH2 0xC7B JUMPI RETURNDATASIZE PUSH1 0x0 DUP1 RETURNDATACOPY RETURNDATASIZE PUSH1 0x0 REVERT JUMPDEST POP POP POP POP PUSH1 0x40 MLOAD RETURNDATASIZE PUSH1 0x1F NOT PUSH1 0x1F DUP3 ADD AND DUP3 ADD DUP1 PUSH1 0x40 MSTORE POP DUP2 ADD SWAP1 PUSH2 0xC9F SWAP2 SWAP1 PUSH2 0x10E7 JUMP JUMPDEST LT PUSH2 0xCAE JUMPI PUSH1 0x1 SWAP2 POP POP PUSH2 0xCC7 JUMP JUMPDEST DUP1 DUP1 PUSH2 0xCB9 SWAP1 PUSH2 0x1779 JUMP JUMPDEST SWAP2 POP POP PUSH2 0xBC6 JUMP JUMPDEST POP PUSH1 0x0 SWAP1 POP JUMPDEST SWAP2 SWAP1 POP JUMP JUMPDEST DUP3 DUP1 SLOAD PUSH2 0xCD8 SWAP1 PUSH2 0x1716 JUMP JUMPDEST SWAP1 PUSH1 0x0 MSTORE PUSH1 0x20 PUSH1 0x0 KECCAK256 SWAP1 PUSH1 0x1F ADD PUSH1 0x20 SWAP1 DIV DUP2 ADD SWAP3 DUP3 PUSH2 0xCFA JUMPI PUSH1 0x0 DUP6 SSTORE PUSH2 0xD41 JUMP JUMPDEST DUP3 PUSH1 0x1F LT PUSH2 0xD13 JUMPI DUP1 MLOAD PUSH1 0xFF NOT AND DUP4 DUP1 ADD OR DUP6 SSTORE PUSH2 0xD41 JUMP JUMPDEST DUP3 DUP1 ADD PUSH1 0x1 ADD DUP6 SSTORE DUP3 ISZERO PUSH2 0xD41 JUMPI SWAP2 DUP3 ADD JUMPDEST DUP3 DUP2 GT ISZERO PUSH2 0xD40 JUMPI DUP3 MLOAD DUP3 SSTORE SWAP2 PUSH1 0x20 ADD SWAP2 SWAP1 PUSH1 0x1 ADD SWAP1 PUSH2 0xD25 JUMP JUMPDEST JUMPDEST POP SWAP1 POP PUSH2 0xD4E SWAP2 SWAP1 PUSH2 0xDDC JUMP JUMPDEST POP SWAP1 JUMP JUMPDEST DUP3 DUP1 SLOAD DUP3 DUP3 SSTORE SWAP1 PUSH1 0x0 MSTORE PUSH1 0x20 PUSH1 0x0 KECCAK256 SWAP1 DUP2 ADD SWAP3 DUP3 ISZERO PUSH2 0xDCB JUMPI SWAP2 PUSH1 0x20 MUL DUP3 ADD JUMPDEST DUP3 DUP2 GT ISZERO PUSH2 0xDCA JUMPI DUP3 MLOAD DUP3 PUSH1 0x0 PUSH2 0x100 EXP DUP2 SLOAD DUP2 PUSH20 0xFFFFFFFFFFFFFFFFFFFFFFFFFFFFFFFFFFFFFFFF MUL NOT AND SWAP1 DUP4 PUSH20 0xFFFFFFFFFFFFFFFFFFFFFFFFFFFFFFFFFFFFFFFF AND MUL OR SWAP1 SSTORE POP SWAP2 PUSH1 0x20 ADD SWAP2 SWAP1 PUSH1 0x1 ADD SWAP1 PUSH2 0xD72 JUMP JUMPDEST JUMPDEST POP SWAP1 POP PUSH2 0xDD8 SWAP2 SWAP1 PUSH2 0xDDC JUMP JUMPDEST POP SWAP1 JUMP JUMPDEST JUMPDEST DUP1 DUP3 GT ISZERO PUSH2 0xDF5 JUMPI PUSH1 0x0 DUP2 PUSH1 0x0 SWAP1 SSTORE POP PUSH1 0x1 ADD PUSH2 0xDDD JUMP JUMPDEST POP SWAP1 JUMP JUMPDEST PUSH1 0x0 PUSH2 0xE0C PUSH2 0xE07 DUP5 PUSH2 0x1591 JUMP JUMPDEST PUSH2 0x156C JUMP JUMPDEST SWAP1 POP DUP1 DUP4 DUP3 MSTORE PUSH1 0x20 DUP3 ADD SWAP1 POP DUP3 DUP6 PUSH1 0x20 DUP7 MUL DUP3 ADD GT ISZERO PUSH2 0xE2F JUMPI PUSH2 0xE2E PUSH2 0x1883 JUMP JUMPDEST JUMPDEST PUSH1 0x0 JUMPDEST DUP6 DUP2 LT ISZERO PUSH2 0xE5F JUMPI DUP2 PUSH2 0xE45 DUP9 DUP3 PUSH2 0xF1B JUMP JUMPDEST DUP5 MSTORE PUSH1 0x20 DUP5 ADD SWAP4 POP PUSH1 0x20 DUP4 ADD SWAP3 POP POP PUSH1 0x1 DUP2 ADD SWAP1 POP PUSH2 0xE32 JUMP JUMPDEST POP POP POP SWAP4 SWAP3 POP POP POP JUMP JUMPDEST PUSH1 0x0 PUSH2 0xE7C PUSH2 0xE77 DUP5 PUSH2 0x15BD JUMP JUMPDEST PUSH2 0x156C JUMP JUMPDEST SWAP1 POP DUP1 DUP4 DUP3 MSTORE PUSH1 0x20 DUP3 ADD SWAP1 POP DUP3 DUP6 PUSH1 0x20 DUP7 MUL DUP3 ADD GT ISZERO PUSH2 0xE9F JUMPI PUSH2 0xE9E PUSH2 0x1883 JUMP JUMPDEST JUMPDEST PUSH1 0x0 JUMPDEST DUP6 DUP2 LT ISZERO PUSH2 0xECF JUMPI DUP2 PUSH2 0xEB5 DUP9 DUP3 PUSH2 0xFCF JUMP JUMPDEST DUP5 MSTORE PUSH1 0x20 DUP5 ADD SWAP4 POP PUSH1 0x20 DUP4 ADD SWAP3 POP POP PUSH1 0x1 DUP2 ADD SWAP1 POP PUSH2 0xEA2 JUMP JUMPDEST POP POP POP SWAP4 SWAP3 POP POP POP JUMP JUMPDEST PUSH1 0x0 PUSH2 0xEEC PUSH2 0xEE7 DUP5 PUSH2 0x15E9 JUMP JUMPDEST PUSH2 0x156C JUMP JUMPDEST SWAP1 POP DUP3 DUP2 MSTORE PUSH1 0x20 DUP2 ADD DUP5 DUP5 DUP5 ADD GT ISZERO PUSH2 0xF08 JUMPI PUSH2 0xF07 PUSH2 0x1888 JUMP JUMPDEST JUMPDEST PUSH2 0xF13 DUP5 DUP3 DUP6 PUSH2 0x16D4 JUMP JUMPDEST POP SWAP4 SWAP3 POP POP POP JUMP JUMPDEST PUSH1 0x0 DUP2 CALLDATALOAD SWAP1 POP PUSH2 0xF2A DUP2 PUSH2 0x1A88 JUMP JUMPDEST SWAP3 SWAP2 POP POP JUMP JUMPDEST PUSH1 0x0 DUP3 PUSH1 0x1F DUP4 ADD SLT PUSH2 0xF45 JUMPI PUSH2 0xF44 PUSH2 0x187E JUMP JUMPDEST JUMPDEST DUP2 CALLDATALOAD PUSH2 0xF55 DUP5 DUP3 PUSH1 0x20 DUP7 ADD PUSH2 0xDF9 JUMP JUMPDEST SWAP2 POP POP SWAP3 SWAP2 POP POP JUMP JUMPDEST PUSH1 0x0 DUP3 PUSH1 0x1F DUP4 ADD SLT PUSH2 0xF73 JUMPI PUSH2 0xF72 PUSH2 0x187E JUMP JUMPDEST JUMPDEST DUP2 CALLDATALOAD PUSH2 0xF83 DUP5 DUP3 PUSH1 0x20 DUP7 ADD PUSH2 0xE69 JUMP JUMPDEST SWAP2 POP POP SWAP3 SWAP2 POP POP JUMP JUMPDEST PUSH1 0x0 DUP2 CALLDATALOAD SWAP1 POP PUSH2 0xF9B DUP2 PUSH2 0x1A9F JUMP JUMPDEST SWAP3 SWAP2 POP POP JUMP JUMPDEST PUSH1 0x0 DUP3 PUSH1 0x1F DUP4 ADD SLT PUSH2 0xFB6 JUMPI PUSH2 0xFB5 PUSH2 0x187E JUMP JUMPDEST JUMPDEST DUP2 CALLDATALOAD PUSH2 0xFC6 DUP5 DUP3 PUSH1 0x20 DUP7 ADD PUSH2 0xED9 JUMP JUMPDEST SWAP2 POP POP SWAP3 SWAP2 POP POP JUMP JUMPDEST PUSH1 0x0 DUP2 CALLDATALOAD SWAP1 POP PUSH2 0xFDE DUP2 PUSH2 0x1AB6 JUMP JUMPDEST SWAP3 SWAP2 POP POP JUMP JUMPDEST PUSH1 0x0 DUP2 MLOAD SWAP1 POP PUSH2 0xFF3 DUP2 PUSH2 0x1AB6 JUMP JUMPDEST SWAP3 SWAP2 POP POP JUMP JUMPDEST PUSH1 0x0 PUSH1 0x20 DUP3 DUP5 SUB SLT ISZERO PUSH2 0x100F JUMPI PUSH2 0x100E PUSH2 0x1892 JUMP JUMPDEST JUMPDEST PUSH1 0x0 DUP3 ADD CALLDATALOAD PUSH8 0xFFFFFFFFFFFFFFFF DUP2 GT ISZERO PUSH2 0x102D JUMPI PUSH2 0x102C PUSH2 0x188D JUMP JUMPDEST JUMPDEST PUSH2 0x1039 DUP5 DUP3 DUP6 ADD PUSH2 0xF5E JUMP JUMPDEST SWAP2 POP POP SWAP3 SWAP2 POP POP JUMP JUMPDEST PUSH1 0x0 DUP1 PUSH1 0x40 DUP4 DUP6 SUB SLT ISZERO PUSH2 0x1059 JUMPI PUSH2 0x1058 PUSH2 0x1892 JUMP JUMPDEST JUMPDEST PUSH1 0x0 DUP4 ADD CALLDATALOAD PUSH8 0xFFFFFFFFFFFFFFFF DUP2 GT ISZERO PUSH2 0x1077 JUMPI PUSH2 0x1076 PUSH2 0x188D JUMP JUMPDEST JUMPDEST PUSH2 0x1083 DUP6 DUP3 DUP7 ADD PUSH2 0xFA1 JUMP JUMPDEST SWAP3 POP POP PUSH1 0x20 DUP4 ADD CALLDATALOAD PUSH8 0xFFFFFFFFFFFFFFFF DUP2 GT ISZERO PUSH2 0x10A4 JUMPI PUSH2 0x10A3 PUSH2 0x188D JUMP JUMPDEST JUMPDEST PUSH2 0x10B0 DUP6 DUP3 DUP7 ADD PUSH2 0xF30 JUMP JUMPDEST SWAP2 POP POP SWAP3 POP SWAP3 SWAP1 POP JUMP JUMPDEST PUSH1 0x0 PUSH1 0x20 DUP3 DUP5 SUB SLT ISZERO PUSH2 0x10D0 JUMPI PUSH2 0x10CF PUSH2 0x1892 JUMP JUMPDEST JUMPDEST PUSH1 0x0 PUSH2 0x10DE DUP5 DUP3 DUP6 ADD PUSH2 0xFCF JUMP JUMPDEST SWAP2 POP POP SWAP3 SWAP2 POP POP JUMP JUMPDEST PUSH1 0x0 PUSH1 0x20 DUP3 DUP5 SUB SLT ISZERO PUSH2 0x10FD JUMPI PUSH2 0x10FC PUSH2 0x1892 JUMP JUMPDEST JUMPDEST PUSH1 0x0 PUSH2 0x110B DUP5 DUP3 DUP6 ADD PUSH2 0xFE4 JUMP JUMPDEST SWAP2 POP POP SWAP3 SWAP2 POP POP JUMP JUMPDEST PUSH1 0x0 DUP1 PUSH1 0x40 DUP4 DUP6 SUB SLT ISZERO PUSH2 0x112B JUMPI PUSH2 0x112A PUSH2 0x1892 JUMP JUMPDEST JUMPDEST PUSH1 0x0 PUSH2 0x1139 DUP6 DUP3 DUP7 ADD PUSH2 0xFCF JUMP JUMPDEST SWAP3 POP POP PUSH1 0x20 PUSH2 0x114A DUP6 DUP3 DUP7 ADD PUSH2 0xF8C JUMP JUMPDEST SWAP2 POP POP SWAP3 POP SWAP3 SWAP1 POP JUMP JUMPDEST PUSH1 0x0 DUP1 PUSH1 0x40 DUP4 DUP6 SUB SLT ISZERO PUSH2 0x116B JUMPI PUSH2 0x116A PUSH2 0x1892 JUMP JUMPDEST JUMPDEST PUSH1 0x0 PUSH2 0x1179 DUP6 DUP3 DUP7 ADD PUSH2 0xFCF JUMP JUMPDEST SWAP3 POP POP PUSH1 0x20 PUSH2 0x118A DUP6 DUP3 DUP7 ADD PUSH2 0xFCF JUMP JUMPDEST SWAP2 POP POP SWAP3 POP SWAP3 SWAP1 POP JUMP JUMPDEST PUSH2 0x119D DUP2 PUSH2 0x168C JUMP JUMPDEST DUP3 MSTORE POP POP JUMP JUMPDEST PUSH2 0x11AC DUP2 PUSH2 0x169E JUMP JUMPDEST DUP3 MSTORE POP POP JUMP JUMPDEST PUSH1 0x0 PUSH2 0x11BD DUP3 PUSH2 0x161A JUMP JUMPDEST PUSH2 0x11C7 DUP2 DUP6 PUSH2 0x1625 JUMP JUMPDEST SWAP4 POP PUSH2 0x11D7 DUP2 DUP6 PUSH1 0x20 DUP7 ADD PUSH2 0x16E3 JUMP JUMPDEST PUSH2 0x11E0 DUP2 PUSH2 0x1897 JUMP JUMPDEST DUP5 ADD SWAP2 POP POP SWAP3 SWAP2 POP POP JUMP JUMPDEST PUSH1 0x0 PUSH2 0x11F8 PUSH1 0x1D DUP4 PUSH2 0x1625 JUMP JUMPDEST SWAP2 POP PUSH2 0x1203 DUP3 PUSH2 0x18A8 JUMP JUMPDEST PUSH1 0x20 DUP3 ADD SWAP1 POP SWAP2 SWAP1 POP JUMP JUMPDEST PUSH1 0x0 PUSH2 0x121B PUSH1 0x29 DUP4 PUSH2 0x1625 JUMP JUMPDEST SWAP2 POP PUSH2 0x1226 DUP3 PUSH2 0x18D1 JUMP JUMPDEST PUSH1 0x40 DUP3 ADD SWAP1 POP SWAP2 SWAP1 POP JUMP JUMPDEST PUSH1 0x0 PUSH2 0x123E PUSH1 0x1D DUP4 PUSH2 0x1625 JUMP JUMPDEST SWAP2 POP PUSH2 0x1249 DUP3 PUSH2 0x1920 JUMP JUMPDEST PUSH1 0x20 DUP3 ADD SWAP1 POP SWAP2 SWAP1 POP JUMP JUMPDEST PUSH1 0x0 PUSH2 0x1261 PUSH1 0x17 DUP4 PUSH2 0x1625 JUMP JUMPDEST SWAP2 POP PUSH2 0x126C DUP3 PUSH2 0x1949 JUMP JUMPDEST PUSH1 0x20 DUP3 ADD SWAP1 POP SWAP2 SWAP1 POP JUMP JUMPDEST PUSH1 0x0 PUSH2 0x1284 PUSH1 0x24 DUP4 PUSH2 0x1625 JUMP JUMPDEST SWAP2 POP PUSH2 0x128F DUP3 PUSH2 0x1972 JUMP JUMPDEST PUSH1 0x40 DUP3 ADD SWAP1 POP SWAP2 SWAP1 POP JUMP JUMPDEST PUSH1 0x0 PUSH2 0x12A7 PUSH1 0x16 DUP4 PUSH2 0x1625 JUMP JUMPDEST SWAP2 POP PUSH2 0x12B2 DUP3 PUSH2 0x19C1 JUMP JUMPDEST PUSH1 0x20 DUP3 ADD SWAP1 POP SWAP2 SWAP1 POP JUMP JUMPDEST PUSH1 0x0 PUSH2 0x12CA PUSH1 0x29 DUP4 PUSH2 0x1625 JUMP JUMPDEST SWAP2 POP PUSH2 0x12D5 DUP3 PUSH2 0x19EA JUMP JUMPDEST PUSH1 0x40 DUP3 ADD SWAP1 POP SWAP2 SWAP1 POP JUMP JUMPDEST PUSH1 0x0 PUSH2 0x12ED PUSH1 0x30 DUP4 PUSH2 0x1625 JUMP JUMPDEST SWAP2 POP PUSH2 0x12F8 DUP3 PUSH2 0x1A39 JUMP JUMPDEST PUSH1 0x40 DUP3 ADD SWAP1 POP SWAP2 SWAP1 POP JUMP JUMPDEST PUSH2 0x130C DUP2 PUSH2 0x16CA JUMP JUMPDEST DUP3 MSTORE POP POP JUMP JUMPDEST PUSH1 0x0 PUSH1 0x20 DUP3 ADD SWAP1 POP PUSH2 0x1327 PUSH1 0x0 DUP4 ADD DUP5 PUSH2 0x1194 JUMP JUMPDEST SWAP3 SWAP2 POP POP JUMP JUMPDEST PUSH1 0x0 PUSH1 0x40 DUP3 ADD SWAP1 POP PUSH2 0x1342 PUSH1 0x0 DUP4 ADD DUP6 PUSH2 0x1194 JUMP JUMPDEST PUSH2 0x134F PUSH1 0x20 DUP4 ADD DUP5 PUSH2 0x1303 JUMP JUMPDEST SWAP4 SWAP3 POP POP POP JUMP JUMPDEST PUSH1 0x0 PUSH1 0x60 DUP3 ADD SWAP1 POP DUP2 DUP2 SUB PUSH1 0x0 DUP4 ADD MSTORE PUSH2 0x1370 DUP2 DUP7 PUSH2 0x11B2 JUMP JUMPDEST SWAP1 POP PUSH2 0x137F PUSH1 0x20 DUP4 ADD DUP6 PUSH2 0x1303 JUMP JUMPDEST PUSH2 0x138C PUSH1 0x40 DUP4 ADD DUP5 PUSH2 0x1194 JUMP JUMPDEST SWAP5 SWAP4 POP POP POP POP JUMP JUMPDEST PUSH1 0x0 PUSH1 0x20 DUP3 ADD SWAP1 POP DUP2 DUP2 SUB PUSH1 0x0 DUP4 ADD MSTORE PUSH2 0x13AD DUP2 PUSH2 0x11EB JUMP JUMPDEST SWAP1 POP SWAP2 SWAP1 POP JUMP JUMPDEST PUSH1 0x0 PUSH1 0x20 DUP3 ADD SWAP1 POP DUP2 DUP2 SUB PUSH1 0x0 DUP4 ADD MSTORE PUSH2 0x13CD DUP2 PUSH2 0x120E JUMP JUMPDEST SWAP1 POP SWAP2 SWAP1 POP JUMP JUMPDEST PUSH1 0x0 PUSH1 0x20 DUP3 ADD SWAP1 POP DUP2 DUP2 SUB PUSH1 0x0 DUP4 ADD MSTORE PUSH2 0x13ED DUP2 PUSH2 0x1231 JUMP JUMPDEST SWAP1 POP SWAP2 SWAP1 POP JUMP JUMPDEST PUSH1 0x0 PUSH1 0x20 DUP3 ADD SWAP1 POP DUP2 DUP2 SUB PUSH1 0x0 DUP4 ADD MSTORE PUSH2 0x140D DUP2 PUSH2 0x1254 JUMP JUMPDEST SWAP1 POP SWAP2 SWAP1 POP JUMP JUMPDEST PUSH1 0x0 PUSH1 0x20 DUP3 ADD SWAP1 POP DUP2 DUP2 SUB PUSH1 0x0 DUP4 ADD MSTORE PUSH2 0x142D DUP2 PUSH2 0x1277 JUMP JUMPDEST SWAP1 POP SWAP2 SWAP1 POP JUMP JUMPDEST PUSH1 0x0 PUSH1 0x20 DUP3 ADD SWAP1 POP DUP2 DUP2 SUB PUSH1 0x0 DUP4 ADD MSTORE PUSH2 0x144D DUP2 PUSH2 0x129A JUMP JUMPDEST SWAP1 POP SWAP2 SWAP1 POP JUMP JUMPDEST PUSH1 0x0 PUSH1 0x20 DUP3 ADD SWAP1 POP DUP2 DUP2 SUB PUSH1 0x0 DUP4 ADD MSTORE PUSH2 0x146D DUP2 PUSH2 0x12BD JUMP JUMPDEST SWAP1 POP SWAP2 SWAP1 POP JUMP JUMPDEST PUSH1 0x0 PUSH1 0x20 DUP3 ADD SWAP1 POP DUP2 DUP2 SUB PUSH1 0x0 DUP4 ADD MSTORE PUSH2 0x148D DUP2 PUSH2 0x12E0 JUMP JUMPDEST SWAP1 POP SWAP2 SWAP1 POP JUMP JUMPDEST PUSH1 0x0 PUSH1 0x20 DUP3 ADD SWAP1 POP PUSH2 0x14A9 PUSH1 0x0 DUP4 ADD DUP5 PUSH2 0x1303 JUMP JUMPDEST SWAP3 SWAP2 POP POP JUMP JUMPDEST PUSH1 0x0 PUSH2 0x120 DUP3 ADD SWAP1 POP PUSH2 0x14C5 PUSH1 0x0 DUP4 ADD DUP13 PUSH2 0x1303 JUMP JUMPDEST PUSH2 0x14D2 PUSH1 0x20 DUP4 ADD DUP12 PUSH2 0x11A3 JUMP JUMPDEST DUP2 DUP2 SUB PUSH1 0x40 DUP4 ADD MSTORE PUSH2 0x14E4 DUP2 DUP11 PUSH2 0x11B2 JUMP JUMPDEST SWAP1 POP PUSH2 0x14F3 PUSH1 0x60 DUP4 ADD DUP10 PUSH2 0x1303 JUMP JUMPDEST PUSH2 0x1500 PUSH1 0x80 DUP4 ADD DUP9 PUSH2 0x1303 JUMP JUMPDEST PUSH2 0x150D PUSH1 0xA0 DUP4 ADD DUP8 PUSH2 0x1303 JUMP JUMPDEST PUSH2 0x151A PUSH1 0xC0 DUP4 ADD DUP7 PUSH2 0x1303 JUMP JUMPDEST PUSH2 0x1527 PUSH1 0xE0 DUP4 ADD DUP6 PUSH2 0x11A3 JUMP JUMPDEST PUSH2 0x1535 PUSH2 0x100 DUP4 ADD DUP5 PUSH2 0x11A3 JUMP JUMPDEST SWAP11 SWAP10 POP POP POP POP POP POP POP POP POP POP JUMP JUMPDEST PUSH1 0x0 PUSH1 0x40 DUP3 ADD SWAP1 POP PUSH2 0x1558 PUSH1 0x0 DUP4 ADD DUP6 PUSH2 0x1303 JUMP JUMPDEST PUSH2 0x1565 PUSH1 0x20 DUP4 ADD DUP5 PUSH2 0x1303 JUMP JUMPDEST SWAP4 SWAP3 POP POP POP JUMP JUMPDEST PUSH1 0x0 PUSH2 0x1576 PUSH2 0x1587 JUMP JUMPDEST SWAP1 POP PUSH2 0x1582 DUP3 DUP3 PUSH2 0x1748 JUMP JUMPDEST SWAP2 SWAP1 POP JUMP JUMPDEST PUSH1 0x0 PUSH1 0x40 MLOAD SWAP1 POP SWAP1 JUMP JUMPDEST PUSH1 0x0 PUSH8 0xFFFFFFFFFFFFFFFF DUP3 GT ISZERO PUSH2 0x15AC JUMPI PUSH2 0x15AB PUSH2 0x184F JUMP JUMPDEST JUMPDEST PUSH1 0x20 DUP3 MUL SWAP1 POP PUSH1 0x20 DUP2 ADD SWAP1 POP SWAP2 SWAP1 POP JUMP JUMPDEST PUSH1 0x0 PUSH8 0xFFFFFFFFFFFFFFFF DUP3 GT ISZERO PUSH2 0x15D8 JUMPI PUSH2 0x15D7 PUSH2 0x184F JUMP JUMPDEST JUMPDEST PUSH1 0x20 DUP3 MUL SWAP1 POP PUSH1 0x20 DUP2 ADD SWAP1 POP SWAP2 SWAP1 POP JUMP JUMPDEST PUSH1 0x0 PUSH8 0xFFFFFFFFFFFFFFFF DUP3 GT ISZERO PUSH2 0x1604 JUMPI PUSH2 0x1603 PUSH2 0x184F JUMP JUMPDEST JUMPDEST PUSH2 0x160D DUP3 PUSH2 0x1897 JUMP JUMPDEST SWAP1 POP PUSH1 0x20 DUP2 ADD SWAP1 POP SWAP2 SWAP1 POP JUMP JUMPDEST PUSH1 0x0 DUP2 MLOAD SWAP1 POP SWAP2 SWAP1 POP JUMP JUMPDEST PUSH1 0x0 DUP3 DUP3 MSTORE PUSH1 0x20 DUP3 ADD SWAP1 POP SWAP3 SWAP2 POP POP JUMP JUMPDEST PUSH1 0x0 PUSH2 0x1641 DUP3 PUSH2 0x16CA JUMP JUMPDEST SWAP2 POP PUSH2 0x164C DUP4 PUSH2 0x16CA JUMP JUMPDEST SWAP3 POP DUP3 PUSH32 0xFFFFFFFFFFFFFFFFFFFFFFFFFFFFFFFFFFFFFFFFFFFFFFFFFFFFFFFFFFFFFFFF SUB DUP3 GT ISZERO PUSH2 0x1681 JUMPI PUSH2 0x1680 PUSH2 0x17C2 JUMP JUMPDEST JUMPDEST DUP3 DUP3 ADD SWAP1 POP SWAP3 SWAP2 POP POP JUMP JUMPDEST PUSH1 0x0 PUSH2 0x1697 DUP3 PUSH2 0x16AA JUMP JUMPDEST SWAP1 POP SWAP2 SWAP1 POP JUMP JUMPDEST PUSH1 0x0 DUP2 ISZERO ISZERO SWAP1 POP SWAP2 SWAP1 POP JUMP JUMPDEST PUSH1 0x0 PUSH20 0xFFFFFFFFFFFFFFFFFFFFFFFFFFFFFFFFFFFFFFFF DUP3 AND SWAP1 POP SWAP2 SWAP1 POP JUMP JUMPDEST PUSH1 0x0 DUP2 SWAP1 POP SWAP2 SWAP1 POP JUMP JUMPDEST DUP3 DUP2 DUP4 CALLDATACOPY PUSH1 0x0 DUP4 DUP4 ADD MSTORE POP POP POP JUMP JUMPDEST PUSH1 0x0 JUMPDEST DUP4 DUP2 LT ISZERO PUSH2 0x1701 JUMPI DUP1 DUP3 ADD MLOAD DUP2 DUP5 ADD MSTORE PUSH1 0x20 DUP2 ADD SWAP1 POP PUSH2 0x16E6 JUMP JUMPDEST DUP4 DUP2 GT ISZERO PUSH2 0x1710 JUMPI PUSH1 0x0 DUP5 DUP5 ADD MSTORE JUMPDEST POP POP POP POP JUMP JUMPDEST PUSH1 0x0 PUSH1 0x2 DUP3 DIV SWAP1 POP PUSH1 0x1 DUP3 AND DUP1 PUSH2 0x172E JUMPI PUSH1 0x7F DUP3 AND SWAP2 POP JUMPDEST PUSH1 0x20 DUP3 LT DUP2 EQ ISZERO PUSH2 0x1742 JUMPI PUSH2 0x1741 PUSH2 0x17F1 JUMP JUMPDEST JUMPDEST POP SWAP2 SWAP1 POP JUMP JUMPDEST PUSH2 0x1751 DUP3 PUSH2 0x1897 JUMP JUMPDEST DUP2 ADD DUP2 DUP2 LT PUSH8 0xFFFFFFFFFFFFFFFF DUP3 GT OR ISZERO PUSH2 0x1770 JUMPI PUSH2 0x176F PUSH2 0x184F JUMP JUMPDEST JUMPDEST DUP1 PUSH1 0x40 MSTORE POP POP POP JUMP JUMPDEST PUSH1 0x0 PUSH2 0x1784 DUP3 PUSH2 0x16CA JUMP JUMPDEST SWAP2 POP PUSH32 0xFFFFFFFFFFFFFFFFFFFFFFFFFFFFFFFFFFFFFFFFFFFFFFFFFFFFFFFFFFFFFFFF DUP3 EQ ISZERO PUSH2 0x17B7 JUMPI PUSH2 0x17B6 PUSH2 0x17C2 JUMP JUMPDEST JUMPDEST PUSH1 0x1 DUP3 ADD SWAP1 POP SWAP2 SWAP1 POP JUMP JUMPDEST PUSH32 0x4E487B7100000000000000000000000000000000000000000000000000000000 PUSH1 0x0 MSTORE PUSH1 0x11 PUSH1 0x4 MSTORE PUSH1 0x24 PUSH1 0x0 REVERT JUMPDEST PUSH32 0x4E487B7100000000000000000000000000000000000000000000000000000000 PUSH1 0x0 MSTORE PUSH1 0x22 PUSH1 0x4 MSTORE PUSH1 0x24 PUSH1 0x0 REVERT JUMPDEST PUSH32 0x4E487B7100000000000000000000000000000000000000000000000000000000 PUSH1 0x0 MSTORE PUSH1 0x32 PUSH1 0x4 MSTORE PUSH1 0x24 PUSH1 0x0 REVERT JUMPDEST PUSH32 0x4E487B7100000000000000000000000000000000000000000000000000000000 PUSH1 0x0 MSTORE PUSH1 0x41 PUSH1 0x4 MSTORE PUSH1 0x24 PUSH1 0x0 REVERT JUMPDEST PUSH1 0x0 DUP1 REVERT JUMPDEST PUSH1 0x0 DUP1 REVERT JUMPDEST PUSH1 0x0 DUP1 REVERT JUMPDEST PUSH1 0x0 DUP1 REVERT JUMPDEST PUSH1 0x0 DUP1 REVERT JUMPDEST PUSH1 0x0 PUSH1 0x1F NOT PUSH1 0x1F DUP4 ADD AND SWAP1 POP SWAP2 SWAP1 POP JUMP JUMPDEST PUSH32 0x596F7520617265206E6F7420656C696769626C6520746F20766F746521000000 PUSH1 0x0 DUP3 ADD MSTORE POP JUMP JUMPDEST PUSH32 0x50726F706F73616C20636F756E7420686173206265656E20616C726561647920 PUSH1 0x0 DUP3 ADD MSTORE PUSH32 0x636F6E6475637465640000000000000000000000000000000000000000000000 PUSH1 0x20 DUP3 ADD MSTORE POP JUMP JUMPDEST PUSH32 0x546869732070726F706F73616C20646F6573206E6F742065786973742E000000 PUSH1 0x0 DUP3 ADD MSTORE POP JUMP JUMPDEST PUSH32 0x596F75206861766520616C726561647920766F74656421000000000000000000 PUSH1 0x0 DUP3 ADD MSTORE POP JUMP JUMPDEST PUSH32 0x596F752061726520656C696769626C6520746F206372656174652070726F706F PUSH1 0x0 DUP3 ADD MSTORE PUSH32 0x73616C2100000000000000000000000000000000000000000000000000000000 PUSH1 0x20 DUP3 ADD MSTORE POP JUMP JUMPDEST PUSH32 0x596F7520617265206E6F7420746865206F776E65722E00000000000000000000 PUSH1 0x0 DUP3 ADD MSTORE POP JUMP JUMPDEST PUSH32 0x54686520646561646C696E6520666F7220746869732070726F706F73616C2069 PUSH1 0x0 DUP3 ADD MSTORE PUSH32 0x73207061737365642E0000000000000000000000000000000000000000000000 PUSH1 0x20 DUP3 ADD MSTORE POP JUMP JUMPDEST PUSH32 0x4F6E6C7920746865206F776E6572206F6620636F6E74726163742063616E2075 PUSH1 0x0 DUP3 ADD MSTORE PUSH32 0x706461746520646561646C696E65732E00000000000000000000000000000000 PUSH1 0x20 DUP3 ADD MSTORE POP JUMP JUMPDEST PUSH2 0x1A91 DUP2 PUSH2 0x168C JUMP JUMPDEST DUP2 EQ PUSH2 0x1A9C JUMPI PUSH1 0x0 DUP1 REVERT JUMPDEST POP JUMP JUMPDEST PUSH2 0x1AA8 DUP2 PUSH2 0x169E JUMP JUMPDEST DUP2 EQ PUSH2 0x1AB3 JUMPI PUSH1 0x0 DUP1 REVERT JUMPDEST POP JUMP JUMPDEST PUSH2 0x1ABF DUP2 PUSH2 0x16CA JUMP JUMPDEST DUP2 EQ PUSH2 0x1ACA JUMPI PUSH1 0x0 DUP1 REVERT JUMPDEST POP JUMP INVALID LOG2 PUSH5 0x6970667358 0x22 SLT KECCAK256 0x1F DUP1 0x4B NUMBER 0x4E PUSH31 0xD67C158CF855594BFFC188FC25D1DE6334CF1818CE5C9942E17364736F6C63 NUMBER STOP ADDMOD SMOD STOP CALLER "},"methodIdentifiers":{"Proposals(uint256)":"d1dbe7d8","addValidTokens(uint256[])":"260b3d53","countVotes(uint256)":"1840f0ca","createProposal(string,address[])":"be8bb7ba","owner()":"8da5cb5b","updateDeadline(uint256,uint256)":"899b184f","validTokens(uint256)":"e9d3d16a","voteOnProposal(uint256,bool)":"1614665c"}}}}}